{
  "_format": "hh-sol-artifact-1",
  "contractName": "NFTMarketplace",
  "sourceName": "contracts/NFTMarketplace.sol",
  "abi": [
    {
      "inputs": [],
      "stateMutability": "nonpayable",
      "type": "constructor"
    },
    {
      "inputs": [
        {
          "internalType": "address",
          "name": "sender",
          "type": "address"
        },
        {
          "internalType": "uint256",
          "name": "tokenId",
          "type": "uint256"
        },
        {
          "internalType": "address",
          "name": "owner",
          "type": "address"
        }
      ],
      "name": "ERC721IncorrectOwner",
      "type": "error"
    },
    {
      "inputs": [
        {
          "internalType": "address",
          "name": "operator",
          "type": "address"
        },
        {
          "internalType": "uint256",
          "name": "tokenId",
          "type": "uint256"
        }
      ],
      "name": "ERC721InsufficientApproval",
      "type": "error"
    },
    {
      "inputs": [
        {
          "internalType": "address",
          "name": "approver",
          "type": "address"
        }
      ],
      "name": "ERC721InvalidApprover",
      "type": "error"
    },
    {
      "inputs": [
        {
          "internalType": "address",
          "name": "operator",
          "type": "address"
        }
      ],
      "name": "ERC721InvalidOperator",
      "type": "error"
    },
    {
      "inputs": [
        {
          "internalType": "address",
          "name": "owner",
          "type": "address"
        }
      ],
      "name": "ERC721InvalidOwner",
      "type": "error"
    },
    {
      "inputs": [
        {
          "internalType": "address",
          "name": "receiver",
          "type": "address"
        }
      ],
      "name": "ERC721InvalidReceiver",
      "type": "error"
    },
    {
      "inputs": [
        {
          "internalType": "address",
          "name": "sender",
          "type": "address"
        }
      ],
      "name": "ERC721InvalidSender",
      "type": "error"
    },
    {
      "inputs": [
        {
          "internalType": "uint256",
          "name": "tokenId",
          "type": "uint256"
        }
      ],
      "name": "ERC721NonexistentToken",
      "type": "error"
    },
    {
      "anonymous": false,
      "inputs": [
        {
          "indexed": true,
          "internalType": "address",
          "name": "owner",
          "type": "address"
        },
        {
          "indexed": true,
          "internalType": "address",
          "name": "approved",
          "type": "address"
        },
        {
          "indexed": true,
          "internalType": "uint256",
          "name": "tokenId",
          "type": "uint256"
        }
      ],
      "name": "Approval",
      "type": "event"
    },
    {
      "anonymous": false,
      "inputs": [
        {
          "indexed": true,
          "internalType": "address",
          "name": "owner",
          "type": "address"
        },
        {
          "indexed": true,
          "internalType": "address",
          "name": "operator",
          "type": "address"
        },
        {
          "indexed": false,
          "internalType": "bool",
          "name": "approved",
          "type": "bool"
        }
      ],
      "name": "ApprovalForAll",
      "type": "event"
    },
    {
      "anonymous": false,
      "inputs": [
        {
          "indexed": false,
          "internalType": "uint256",
          "name": "_fromTokenId",
          "type": "uint256"
        },
        {
          "indexed": false,
          "internalType": "uint256",
          "name": "_toTokenId",
          "type": "uint256"
        }
      ],
      "name": "BatchMetadataUpdate",
      "type": "event"
    },
    {
      "anonymous": false,
      "inputs": [
        {
          "indexed": false,
          "internalType": "uint256",
          "name": "_tokenId",
          "type": "uint256"
        }
      ],
      "name": "MetadataUpdate",
      "type": "event"
    },
    {
      "anonymous": false,
      "inputs": [
        {
          "indexed": true,
          "internalType": "address",
          "name": "from",
          "type": "address"
        },
        {
          "indexed": true,
          "internalType": "address",
          "name": "to",
          "type": "address"
        },
        {
          "indexed": true,
          "internalType": "uint256",
          "name": "tokenId",
          "type": "uint256"
        }
      ],
      "name": "Transfer",
      "type": "event"
    },
    {
      "anonymous": false,
      "inputs": [
        {
          "indexed": true,
          "internalType": "uint256",
          "name": "tokenId",
          "type": "uint256"
        },
        {
          "indexed": false,
          "internalType": "address",
          "name": "seller",
          "type": "address"
        },
        {
          "indexed": false,
          "internalType": "address",
          "name": "owner",
          "type": "address"
        },
        {
          "indexed": false,
          "internalType": "uint256",
          "name": "price",
          "type": "uint256"
        },
        {
          "indexed": false,
          "internalType": "bool",
          "name": "sold",
          "type": "bool"
        }
      ],
      "name": "idMarketItemCreated",
      "type": "event"
    },
    {
      "inputs": [
        {
          "internalType": "address",
          "name": "to",
          "type": "address"
        },
        {
          "internalType": "uint256",
          "name": "tokenId",
          "type": "uint256"
        }
      ],
      "name": "approve",
      "outputs": [],
      "stateMutability": "nonpayable",
      "type": "function"
    },
    {
      "inputs": [
        {
          "internalType": "address",
          "name": "owner",
          "type": "address"
        }
      ],
      "name": "balanceOf",
      "outputs": [
        {
          "internalType": "uint256",
          "name": "",
          "type": "uint256"
        }
      ],
      "stateMutability": "view",
      "type": "function"
    },
    {
      "inputs": [
        {
          "internalType": "uint256",
          "name": "tokenId",
          "type": "uint256"
        }
      ],
      "name": "buyToken",
      "outputs": [],
      "stateMutability": "payable",
      "type": "function"
    },
    {
      "inputs": [
        {
          "internalType": "string",
          "name": "tokenURI",
          "type": "string"
        },
        {
          "internalType": "uint256",
          "name": "price",
          "type": "uint256"
        }
      ],
      "name": "createToken",
      "outputs": [
        {
          "internalType": "uint256",
          "name": "tokenId",
          "type": "uint256"
        }
      ],
      "stateMutability": "payable",
      "type": "function"
    },
    {
      "inputs": [],
      "name": "fetchListedNFTsByUser",
      "outputs": [
        {
          "components": [
            {
              "internalType": "uint256",
              "name": "tokenId",
              "type": "uint256"
            },
            {
              "internalType": "address payable",
              "name": "seller",
              "type": "address"
            },
            {
              "internalType": "address payable",
              "name": "owner",
              "type": "address"
            },
            {
              "internalType": "uint256",
              "name": "price",
              "type": "uint256"
            },
            {
              "internalType": "bool",
              "name": "sold",
              "type": "bool"
            },
            {
              "internalType": "string",
              "name": "tokenURI",
              "type": "string"
            }
          ],
          "internalType": "struct NFTMarketplace.MarketItemWithURI[]",
          "name": "",
          "type": "tuple[]"
        }
      ],
      "stateMutability": "view",
      "type": "function"
    },
    {
      "inputs": [],
      "name": "fetchPurchasedNFTsByUser",
      "outputs": [
        {
          "components": [
            {
              "internalType": "uint256",
              "name": "tokenId",
              "type": "uint256"
            },
            {
              "internalType": "address payable",
              "name": "seller",
              "type": "address"
            },
            {
              "internalType": "address payable",
              "name": "owner",
              "type": "address"
            },
            {
              "internalType": "uint256",
              "name": "price",
              "type": "uint256"
            },
            {
              "internalType": "bool",
              "name": "sold",
              "type": "bool"
            },
            {
              "internalType": "string",
              "name": "tokenURI",
              "type": "string"
            }
          ],
          "internalType": "struct NFTMarketplace.MarketItemWithURI[]",
          "name": "",
          "type": "tuple[]"
        }
      ],
      "stateMutability": "view",
      "type": "function"
    },
    {
      "inputs": [],
      "name": "fetchUnsoldMarketItem",
      "outputs": [
        {
          "components": [
            {
              "internalType": "uint256",
              "name": "tokenId",
              "type": "uint256"
            },
            {
              "internalType": "address payable",
              "name": "seller",
              "type": "address"
            },
            {
              "internalType": "address payable",
              "name": "owner",
              "type": "address"
            },
            {
              "internalType": "uint256",
              "name": "price",
              "type": "uint256"
            },
            {
              "internalType": "bool",
              "name": "sold",
              "type": "bool"
            },
            {
              "internalType": "string",
              "name": "tokenURI",
              "type": "string"
            }
          ],
          "internalType": "struct NFTMarketplace.MarketItemWithURI[]",
          "name": "",
          "type": "tuple[]"
        }
      ],
      "stateMutability": "view",
      "type": "function"
    },
    {
      "inputs": [
        {
          "internalType": "uint256",
          "name": "tokenId",
          "type": "uint256"
        }
      ],
      "name": "getApproved",
      "outputs": [
        {
          "internalType": "address",
          "name": "",
          "type": "address"
        }
      ],
      "stateMutability": "view",
      "type": "function"
    },
    {
      "inputs": [],
      "name": "getListingPrice",
      "outputs": [
        {
          "internalType": "uint256",
          "name": "",
          "type": "uint256"
        }
      ],
      "stateMutability": "view",
      "type": "function"
    },
    {
      "inputs": [
        {
          "internalType": "address",
          "name": "owner",
          "type": "address"
        },
        {
          "internalType": "address",
          "name": "operator",
          "type": "address"
        }
      ],
      "name": "isApprovedForAll",
      "outputs": [
        {
          "internalType": "bool",
          "name": "",
          "type": "bool"
        }
      ],
      "stateMutability": "view",
      "type": "function"
    },
    {
      "inputs": [],
      "name": "name",
      "outputs": [
        {
          "internalType": "string",
          "name": "",
          "type": "string"
        }
      ],
      "stateMutability": "view",
      "type": "function"
    },
    {
      "inputs": [
        {
          "internalType": "uint256",
          "name": "tokenId",
          "type": "uint256"
        }
      ],
      "name": "ownerOf",
      "outputs": [
        {
          "internalType": "address",
          "name": "",
          "type": "address"
        }
      ],
      "stateMutability": "view",
      "type": "function"
    },
    {
      "inputs": [
        {
          "internalType": "uint256",
          "name": "tokenId",
          "type": "uint256"
        },
        {
          "internalType": "uint256",
          "name": "price",
          "type": "uint256"
        }
      ],
      "name": "reSellToken",
      "outputs": [],
      "stateMutability": "payable",
      "type": "function"
    },
    {
      "inputs": [
        {
          "internalType": "address",
          "name": "from",
          "type": "address"
        },
        {
          "internalType": "address",
          "name": "to",
          "type": "address"
        },
        {
          "internalType": "uint256",
          "name": "tokenId",
          "type": "uint256"
        }
      ],
      "name": "safeTransferFrom",
      "outputs": [],
      "stateMutability": "nonpayable",
      "type": "function"
    },
    {
      "inputs": [
        {
          "internalType": "address",
          "name": "from",
          "type": "address"
        },
        {
          "internalType": "address",
          "name": "to",
          "type": "address"
        },
        {
          "internalType": "uint256",
          "name": "tokenId",
          "type": "uint256"
        },
        {
          "internalType": "bytes",
          "name": "data",
          "type": "bytes"
        }
      ],
      "name": "safeTransferFrom",
      "outputs": [],
      "stateMutability": "nonpayable",
      "type": "function"
    },
    {
      "inputs": [
        {
          "internalType": "address",
          "name": "operator",
          "type": "address"
        },
        {
          "internalType": "bool",
          "name": "approved",
          "type": "bool"
        }
      ],
      "name": "setApprovalForAll",
      "outputs": [],
      "stateMutability": "nonpayable",
      "type": "function"
    },
    {
      "inputs": [
        {
          "internalType": "bytes4",
          "name": "interfaceId",
          "type": "bytes4"
        }
      ],
      "name": "supportsInterface",
      "outputs": [
        {
          "internalType": "bool",
          "name": "",
          "type": "bool"
        }
      ],
      "stateMutability": "view",
      "type": "function"
    },
    {
      "inputs": [],
      "name": "symbol",
      "outputs": [
        {
          "internalType": "string",
          "name": "",
          "type": "string"
        }
      ],
      "stateMutability": "view",
      "type": "function"
    },
    {
      "inputs": [
        {
          "internalType": "uint256",
          "name": "tokenId",
          "type": "uint256"
        }
      ],
      "name": "tokenURI",
      "outputs": [
        {
          "internalType": "string",
          "name": "",
          "type": "string"
        }
      ],
      "stateMutability": "view",
      "type": "function"
    },
    {
      "inputs": [
        {
          "internalType": "address",
          "name": "from",
          "type": "address"
        },
        {
          "internalType": "address",
          "name": "to",
          "type": "address"
        },
        {
          "internalType": "uint256",
          "name": "tokenId",
          "type": "uint256"
        }
      ],
      "name": "transferFrom",
      "outputs": [],
      "stateMutability": "nonpayable",
      "type": "function"
    },
    {
      "inputs": [
        {
          "internalType": "uint256",
          "name": "_listingPrice",
          "type": "uint256"
        }
      ],
      "name": "updateListingPrice",
      "outputs": [],
      "stateMutability": "payable",
      "type": "function"
    }
  ],
  "bytecode": "0x60806040526608e1bc9bf0400060095534801561001b57600080fd5b506040518060400160405280601381526020017f4e4654204d657461766572736520546f6b656e000000000000000000000000008152506040518060400160405280600581526020017f4d594e465400000000000000000000000000000000000000000000000000000081525081600090816100979190610340565b5080600190816100a79190610340565b50505033600a60006101000a81548173ffffffffffffffffffffffffffffffffffffffff021916908373ffffffffffffffffffffffffffffffffffffffff160217905550610412565b600081519050919050565b7f4e487b7100000000000000000000000000000000000000000000000000000000600052604160045260246000fd5b7f4e487b7100000000000000000000000000000000000000000000000000000000600052602260045260246000fd5b6000600282049050600182168061017157607f821691505b6020821081036101845761018361012a565b5b50919050565b60008190508160005260206000209050919050565b60006020601f8301049050919050565b600082821b905092915050565b6000600883026101ec7fffffffffffffffffffffffffffffffffffffffffffffffffffffffffffffffff826101af565b6101f686836101af565b95508019841693508086168417925050509392505050565b6000819050919050565b6000819050919050565b600061023d6102386102338461020e565b610218565b61020e565b9050919050565b6000819050919050565b61025783610222565b61026b61026382610244565b8484546101bc565b825550505050565b600090565b610280610273565b61028b81848461024e565b505050565b5b818110156102af576102a4600082610278565b600181019050610291565b5050565b601f8211156102f4576102c58161018a565b6102ce8461019f565b810160208510156102dd578190505b6102f16102e98561019f565b830182610290565b50505b505050565b600082821c905092915050565b6000610317600019846008026102f9565b1980831691505092915050565b60006103308383610306565b9150826002028217905092915050565b610349826100f0565b67ffffffffffffffff811115610362576103616100fb565b5b61036c8254610159565b6103778282856102b3565b600060209050601f8311600181146103aa5760008415610398578287015190505b6103a28582610324565b86555061040a565b601f1984166103b88661018a565b60005b828110156103e0578489015182556001820191506020850194506020810190506103bb565b868310156103fd57848901516103f9601f891682610306565b8355505b6001600288020188555050505b505050505050565b613cab806104216000396000f3fe60806040526004361061012a5760003560e01c806372b3b620116100ab578063ae677aa31161006f578063ae677aa3146103db578063b88d4fde146103f7578063c87b56dd14610420578063cc7c4e101461045d578063d1c3b94b14610488578063e985e9c5146104b35761012a565b806372b3b6201461031057806384fb7a241461034057806385535b251461036b57806395d89b4114610387578063a22cb465146103b25761012a565b806323b872dd116100f257806323b872dd146102285780632d296bf11461025157806342842e0e1461026d5780636352211e1461029657806370a08231146102d35761012a565b806301ffc9a71461012f57806306fdde031461016c578063081812fc14610197578063095ea7b3146101d457806312e85585146101fd575b600080fd5b34801561013b57600080fd5b5061015660048036038101906101519190612ad1565b6104f0565b6040516101639190612b19565b60405180910390f35b34801561017857600080fd5b50610181610551565b60405161018e9190612bc4565b60405180910390f35b3480156101a357600080fd5b506101be60048036038101906101b99190612c1c565b6105e3565b6040516101cb9190612c8a565b60405180910390f35b3480156101e057600080fd5b506101fb60048036038101906101f69190612cd1565b6105ff565b005b34801561020957600080fd5b50610212610615565b60405161021f9190612d20565b60405180910390f35b34801561023457600080fd5b5061024f600480360381019061024a9190612d3b565b61061f565b005b61026b60048036038101906102669190612c1c565b610721565b005b34801561027957600080fd5b50610294600480360381019061028f9190612d3b565b610903565b005b3480156102a257600080fd5b506102bd60048036038101906102b89190612c1c565b610923565b6040516102ca9190612c8a565b60405180910390f35b3480156102df57600080fd5b506102fa60048036038101906102f59190612d8e565b610935565b6040516103079190612d20565b60405180910390f35b61032a60048036038101906103259190612ef0565b6109ef565b6040516103379190612d20565b60405180910390f35b34801561034c57600080fd5b50610355610a31565b6040516103629190613120565b60405180910390f35b61038560048036038101906103809190613142565b610c89565b005b34801561039357600080fd5b5061039c610e7e565b6040516103a99190612bc4565b60405180910390f35b3480156103be57600080fd5b506103d960048036038101906103d491906131ae565b610f10565b005b6103f560048036038101906103f09190612c1c565b610f26565b005b34801561040357600080fd5b5061041e6004803603810190610419919061328f565b610fc0565b005b34801561042c57600080fd5b5061044760048036038101906104429190612c1c565b610fe5565b6040516104549190612bc4565b60405180910390f35b34801561046957600080fd5b506104726110f8565b60405161047f9190613120565b60405180910390f35b34801561049457600080fd5b5061049d61139f565b6040516104aa9190613120565b60405180910390f35b3480156104bf57600080fd5b506104da60048036038101906104d59190613312565b611646565b6040516104e79190612b19565b60405180910390f35b6000634906490660e01b7bffffffffffffffffffffffffffffffffffffffffffffffffffffffff1916827bffffffffffffffffffffffffffffffffffffffffffffffffffffffff1916148061054a5750610549826116da565b5b9050919050565b60606000805461056090613381565b80601f016020809104026020016040519081016040528092919081815260200182805461058c90613381565b80156105d95780601f106105ae576101008083540402835291602001916105d9565b820191906000526020600020905b8154815290600101906020018083116105bc57829003601f168201915b5050505050905090565b60006105ee826117bc565b506105f882611844565b9050919050565b610611828261060c611881565b611889565b5050565b6000600954905090565b600073ffffffffffffffffffffffffffffffffffffffff168273ffffffffffffffffffffffffffffffffffffffff16036106915760006040517f64a0ae920000000000000000000000000000000000000000000000000000000081526004016106889190612c8a565b60405180910390fd5b60006106a583836106a0611881565b61189b565b90508373ffffffffffffffffffffffffffffffffffffffff168173ffffffffffffffffffffffffffffffffffffffff161461071b578382826040517f64283d7b000000000000000000000000000000000000000000000000000000008152600401610712939291906133b2565b60405180910390fd5b50505050565b6000600b600083815260200190815260200160002060030154905080341461077e576040517f08c379a00000000000000000000000000000000000000000000000000000000081526004016107759061345b565b60405180910390fd5b6001600b600084815260200190815260200160002060040160006101000a81548160ff02191690831515021790555033600b600084815260200190815260200160002060020160006101000a81548173ffffffffffffffffffffffffffffffffffffffff021916908373ffffffffffffffffffffffffffffffffffffffff16021790555061080c6008611ab5565b610817303384611ad4565b600a60009054906101000a900473ffffffffffffffffffffffffffffffffffffffff1673ffffffffffffffffffffffffffffffffffffffff166108fc6009549081150290604051600060405180830381858888f19350505050158015610881573d6000803e3d6000fd5b50600b600083815260200190815260200160002060010160009054906101000a900473ffffffffffffffffffffffffffffffffffffffff1673ffffffffffffffffffffffffffffffffffffffff166108fc349081150290604051600060405180830381858888f193505050501580156108fe573d6000803e3d6000fd5b505050565b61091e83838360405180602001604052806000815250610fc0565b505050565b600061092e826117bc565b9050919050565b60008073ffffffffffffffffffffffffffffffffffffffff168273ffffffffffffffffffffffffffffffffffffffff16036109a85760006040517f89c62b6400000000000000000000000000000000000000000000000000000000815260040161099f9190612c8a565b60405180910390fd5b600360008373ffffffffffffffffffffffffffffffffffffffff1673ffffffffffffffffffffffffffffffffffffffff168152602001908152602001600020549050919050565b60006109fb6007611ab5565b6000610a076007611c41565b9050610a133382611c4f565b610a1d8185611c6d565b610a278184611cc9565b8091505092915050565b60606000610a3f6007611c41565b90506000610a4d6008611c41565b82610a5891906134aa565b90506000808267ffffffffffffffff811115610a7757610a76612dc5565b5b604051908082528060200260200182016040528015610ab057816020015b610a9d612a01565b815260200190600190039081610a955790505b5090506000600190505b848111610c7e5760001515600b600083815260200190815260200160002060040160009054906101000a900460ff161515148015610b5957503073ffffffffffffffffffffffffffffffffffffffff16600b600083815260200190815260200160002060020160009054906101000a900473ffffffffffffffffffffffffffffffffffffffff1673ffffffffffffffffffffffffffffffffffffffff16145b15610c6b576000600b600083815260200190815260200160002090506040518060c00160405280826000015481526020018260010160009054906101000a900473ffffffffffffffffffffffffffffffffffffffff1673ffffffffffffffffffffffffffffffffffffffff1681526020018260020160009054906101000a900473ffffffffffffffffffffffffffffffffffffffff1673ffffffffffffffffffffffffffffffffffffffff168152602001826003015481526020018260040160009054906101000a900460ff1615158152602001610c3a8360000154610fe5565b815250838581518110610c5057610c4f6134de565b5b60200260200101819052508380610c669061350d565b945050505b8080610c769061350d565b915050610aba565b508094505050505090565b6009543414610ccd576040517f08c379a0000000000000000000000000000000000000000000000000000000008152600401610cc4906135c7565b60405180910390fd5b3373ffffffffffffffffffffffffffffffffffffffff16600b600084815260200190815260200160002060020160009054906101000a900473ffffffffffffffffffffffffffffffffffffffff1673ffffffffffffffffffffffffffffffffffffffff1614610d71576040517f08c379a0000000000000000000000000000000000000000000000000000000008152600401610d6890613659565b60405180910390fd5b6000600b600084815260200190815260200160002060040160006101000a81548160ff02191690831515021790555080600b60008481526020019081526020016000206003018190555033600b600084815260200190815260200160002060010160006101000a81548173ffffffffffffffffffffffffffffffffffffffff021916908373ffffffffffffffffffffffffffffffffffffffff16021790555030600b600084815260200190815260200160002060020160006101000a81548173ffffffffffffffffffffffffffffffffffffffff021916908373ffffffffffffffffffffffffffffffffffffffff160217905550610e6f6008611ecc565b610e7a333084611ad4565b5050565b606060018054610e8d90613381565b80601f0160208091040260200160405190810160405280929190818152602001828054610eb990613381565b8015610f065780601f10610edb57610100808354040283529160200191610f06565b820191906000526020600020905b815481529060010190602001808311610ee957829003601f168201915b5050505050905090565b610f22610f1b611881565b8383611f32565b5050565b600a60009054906101000a900473ffffffffffffffffffffffffffffffffffffffff1673ffffffffffffffffffffffffffffffffffffffff163373ffffffffffffffffffffffffffffffffffffffff1614610fb6576040517f08c379a0000000000000000000000000000000000000000000000000000000008152600401610fad906136eb565b60405180910390fd5b8060098190555050565b610fcb84848461061f565b610fdf610fd6611881565b858585856120a1565b50505050565b6060610ff0826117bc565b50600060066000848152602001908152602001600020805461101190613381565b80601f016020809104026020016040519081016040528092919081815260200182805461103d90613381565b801561108a5780601f1061105f5761010080835404028352916020019161108a565b820191906000526020600020905b81548152906001019060200180831161106d57829003601f168201915b50505050509050600061109b612252565b905060008151036110b05781925050506110f3565b6000825111156110e55780826040516020016110cd929190613747565b604051602081830303815290604052925050506110f3565b6110ee84612269565b925050505b919050565b606060006111066007611c41565b90506000806000600190505b8381116111a4573373ffffffffffffffffffffffffffffffffffffffff16600b600083815260200190815260200160002060010160009054906101000a900473ffffffffffffffffffffffffffffffffffffffff1673ffffffffffffffffffffffffffffffffffffffff160361119157828061118d9061350d565b9350505b808061119c9061350d565b915050611112565b5060008267ffffffffffffffff8111156111c1576111c0612dc5565b5b6040519080825280602002602001820160405280156111fa57816020015b6111e7612a01565b8152602001906001900390816111df5790505b5090506000600190505b848111611394573373ffffffffffffffffffffffffffffffffffffffff16600b600083815260200190815260200160002060020160009054906101000a900473ffffffffffffffffffffffffffffffffffffffff1673ffffffffffffffffffffffffffffffffffffffff1603611381576000600b600083815260200190815260200160002090506040518060c00160405280826000015481526020018260010160009054906101000a900473ffffffffffffffffffffffffffffffffffffffff1673ffffffffffffffffffffffffffffffffffffffff1681526020018260020160009054906101000a900473ffffffffffffffffffffffffffffffffffffffff1673ffffffffffffffffffffffffffffffffffffffff168152602001826003015481526020018260040160009054906101000a900460ff16151581526020016113508360000154610fe5565b815250838581518110611366576113656134de565b5b6020026020010181905250838061137c9061350d565b945050505b808061138c9061350d565b915050611204565b508094505050505090565b606060006113ad6007611c41565b90506000806000600190505b83811161144b573373ffffffffffffffffffffffffffffffffffffffff16600b600083815260200190815260200160002060020160009054906101000a900473ffffffffffffffffffffffffffffffffffffffff1673ffffffffffffffffffffffffffffffffffffffff16036114385782806114349061350d565b9350505b80806114439061350d565b9150506113b9565b5060008267ffffffffffffffff81111561146857611467612dc5565b5b6040519080825280602002602001820160405280156114a157816020015b61148e612a01565b8152602001906001900390816114865790505b5090506000600190505b84811161163b573373ffffffffffffffffffffffffffffffffffffffff16600b600083815260200190815260200160002060020160009054906101000a900473ffffffffffffffffffffffffffffffffffffffff1673ffffffffffffffffffffffffffffffffffffffff1603611628576000600b600083815260200190815260200160002090506040518060c00160405280826000015481526020018260010160009054906101000a900473ffffffffffffffffffffffffffffffffffffffff1673ffffffffffffffffffffffffffffffffffffffff1681526020018260020160009054906101000a900473ffffffffffffffffffffffffffffffffffffffff1673ffffffffffffffffffffffffffffffffffffffff168152602001826003015481526020018260040160009054906101000a900460ff16151581526020016115f78360000154610fe5565b81525083858151811061160d5761160c6134de565b5b602002602001018190525083806116239061350d565b945050505b80806116339061350d565b9150506114ab565b508094505050505090565b6000600560008473ffffffffffffffffffffffffffffffffffffffff1673ffffffffffffffffffffffffffffffffffffffff16815260200190815260200160002060008373ffffffffffffffffffffffffffffffffffffffff1673ffffffffffffffffffffffffffffffffffffffff16815260200190815260200160002060009054906101000a900460ff16905092915050565b60007f80ac58cd000000000000000000000000000000000000000000000000000000007bffffffffffffffffffffffffffffffffffffffffffffffffffffffff1916827bffffffffffffffffffffffffffffffffffffffffffffffffffffffff191614806117a557507f5b5e139f000000000000000000000000000000000000000000000000000000007bffffffffffffffffffffffffffffffffffffffffffffffffffffffff1916827bffffffffffffffffffffffffffffffffffffffffffffffffffffffff1916145b806117b557506117b4826122d2565b5b9050919050565b6000806117c88361233c565b9050600073ffffffffffffffffffffffffffffffffffffffff168173ffffffffffffffffffffffffffffffffffffffff160361183b57826040517f7e2732890000000000000000000000000000000000000000000000000000000081526004016118329190612d20565b60405180910390fd5b80915050919050565b60006004600083815260200190815260200160002060009054906101000a900473ffffffffffffffffffffffffffffffffffffffff169050919050565b600033905090565b6118968383836001612379565b505050565b6000806118a78461233c565b9050600073ffffffffffffffffffffffffffffffffffffffff168373ffffffffffffffffffffffffffffffffffffffff16146118e9576118e881848661253e565b5b600073ffffffffffffffffffffffffffffffffffffffff168173ffffffffffffffffffffffffffffffffffffffff161461197a5761192b600085600080612379565b6001600360008373ffffffffffffffffffffffffffffffffffffffff1673ffffffffffffffffffffffffffffffffffffffff168152602001908152602001600020600082825403925050819055505b600073ffffffffffffffffffffffffffffffffffffffff168573ffffffffffffffffffffffffffffffffffffffff16146119fd576001600360008773ffffffffffffffffffffffffffffffffffffffff1673ffffffffffffffffffffffffffffffffffffffff168152602001908152602001600020600082825401925050819055505b846002600086815260200190815260200160002060006101000a81548173ffffffffffffffffffffffffffffffffffffffff021916908373ffffffffffffffffffffffffffffffffffffffff160217905550838573ffffffffffffffffffffffffffffffffffffffff168273ffffffffffffffffffffffffffffffffffffffff167fddf252ad1be2c89b69c2b068fc378daa952ba7f163c4a11628f55a4df523b3ef60405160405180910390a4809150509392505050565b6001816000016000828254611aca919061376b565b9250508190555050565b600073ffffffffffffffffffffffffffffffffffffffff168273ffffffffffffffffffffffffffffffffffffffff1603611b465760006040517f64a0ae92000000000000000000000000000000000000000000000000000000008152600401611b3d9190612c8a565b60405180910390fd5b6000611b548383600061189b565b9050600073ffffffffffffffffffffffffffffffffffffffff168173ffffffffffffffffffffffffffffffffffffffff1603611bc757816040517f7e273289000000000000000000000000000000000000000000000000000000008152600401611bbe9190612d20565b60405180910390fd5b8373ffffffffffffffffffffffffffffffffffffffff168173ffffffffffffffffffffffffffffffffffffffff1614611c3b578382826040517f64283d7b000000000000000000000000000000000000000000000000000000008152600401611c32939291906133b2565b60405180910390fd5b50505050565b600081600001549050919050565b611c69828260405180602001604052806000815250612602565b5050565b80600660008481526020019081526020016000209081611c8d919061394b565b507ff8e1a15aba9398e019f0b49df1a4fde98ee17ae345cb5f6b5e2c27f5033e8ce782604051611cbd9190612d20565b60405180910390a15050565b6009543414611d0d576040517f08c379a0000000000000000000000000000000000000000000000000000000008152600401611d04906135c7565b60405180910390fd5b60008111611d50576040517f08c379a0000000000000000000000000000000000000000000000000000000008152600401611d4790613a69565b60405180910390fd5b6040518060a001604052808381526020013373ffffffffffffffffffffffffffffffffffffffff1681526020013073ffffffffffffffffffffffffffffffffffffffff16815260200182815260200160001515815250600b60008481526020019081526020016000206000820151816000015560208201518160010160006101000a81548173ffffffffffffffffffffffffffffffffffffffff021916908373ffffffffffffffffffffffffffffffffffffffff16021790555060408201518160020160006101000a81548173ffffffffffffffffffffffffffffffffffffffff021916908373ffffffffffffffffffffffffffffffffffffffff1602179055506060820151816003015560808201518160040160006101000a81548160ff021916908315150217905550905050611e89333084611ad4565b817fdebdb32cb5230ab727c9c361b16fdb2015df225c10e6a3e7f60ecd5dc5be45163330846000604051611ec09493929190613a89565b60405180910390a25050565b6000816000015411611f13576040517f08c379a0000000000000000000000000000000000000000000000000000000008152600401611f0a90613b1a565b60405180910390fd5b6001816000016000828254611f2891906134aa565b9250508190555050565b600073ffffffffffffffffffffffffffffffffffffffff168273ffffffffffffffffffffffffffffffffffffffff1603611fa357816040517f5b08ba18000000000000000000000000000000000000000000000000000000008152600401611f9a9190612c8a565b60405180910390fd5b80600560008573ffffffffffffffffffffffffffffffffffffffff1673ffffffffffffffffffffffffffffffffffffffff16815260200190815260200160002060008473ffffffffffffffffffffffffffffffffffffffff1673ffffffffffffffffffffffffffffffffffffffff16815260200190815260200160002060006101000a81548160ff0219169083151502179055508173ffffffffffffffffffffffffffffffffffffffff168373ffffffffffffffffffffffffffffffffffffffff167f17307eab39ab6107e8899845ad3d59bd9653f200f220920489ca2b5937696c31836040516120949190612b19565b60405180910390a3505050565b60008373ffffffffffffffffffffffffffffffffffffffff163b111561224b578273ffffffffffffffffffffffffffffffffffffffff1663150b7a02868685856040518563ffffffff1660e01b81526004016121009493929190613b8f565b6020604051808303816000875af192505050801561213c57506040513d601f19601f820116820180604052508101906121399190613bf0565b60015b6121c0573d806000811461216c576040519150601f19603f3d011682016040523d82523d6000602084013e612171565b606091505b5060008151036121b857836040517f64a0ae920000000000000000000000000000000000000000000000000000000081526004016121af9190612c8a565b60405180910390fd5b805181602001fd5b63150b7a0260e01b7bffffffffffffffffffffffffffffffffffffffffffffffffffffffff1916817bffffffffffffffffffffffffffffffffffffffffffffffffffffffff19161461224957836040517f64a0ae920000000000000000000000000000000000000000000000000000000081526004016122409190612c8a565b60405180910390fd5b505b5050505050565b606060405180602001604052806000815250905090565b6060612274826117bc565b50600061227f612252565b9050600081511161229f57604051806020016040528060008152506122ca565b806122a984612626565b6040516020016122ba929190613747565b6040516020818303038152906040525b915050919050565b60007f01ffc9a7000000000000000000000000000000000000000000000000000000007bffffffffffffffffffffffffffffffffffffffffffffffffffffffff1916827bffffffffffffffffffffffffffffffffffffffffffffffffffffffff1916149050919050565b60006002600083815260200190815260200160002060009054906101000a900473ffffffffffffffffffffffffffffffffffffffff169050919050565b80806123b25750600073ffffffffffffffffffffffffffffffffffffffff168273ffffffffffffffffffffffffffffffffffffffff1614155b156124e65760006123c2846117bc565b9050600073ffffffffffffffffffffffffffffffffffffffff168373ffffffffffffffffffffffffffffffffffffffff161415801561242d57508273ffffffffffffffffffffffffffffffffffffffff168173ffffffffffffffffffffffffffffffffffffffff1614155b8015612440575061243e8184611646565b155b1561248257826040517fa9fbf51f0000000000000000000000000000000000000000000000000000000081526004016124799190612c8a565b60405180910390fd5b81156124e457838573ffffffffffffffffffffffffffffffffffffffff168273ffffffffffffffffffffffffffffffffffffffff167f8c5be1e5ebec7d5bd14f71427d1e84f3dd0314c0f7b2291e5b200ac8c7c3b92560405160405180910390a45b505b836004600085815260200190815260200160002060006101000a81548173ffffffffffffffffffffffffffffffffffffffff021916908373ffffffffffffffffffffffffffffffffffffffff16021790555050505050565b6125498383836126f4565b6125fd57600073ffffffffffffffffffffffffffffffffffffffff168373ffffffffffffffffffffffffffffffffffffffff16036125be57806040517f7e2732890000000000000000000000000000000000000000000000000000000081526004016125b59190612d20565b60405180910390fd5b81816040517f177e802f0000000000000000000000000000000000000000000000000000000081526004016125f4929190613c1d565b60405180910390fd5b505050565b61260c83836127b5565b612621612617611881565b60008585856120a1565b505050565b606060006001612635846128ae565b01905060008167ffffffffffffffff81111561265457612653612dc5565b5b6040519080825280601f01601f1916602001820160405280156126865781602001600182028036833780820191505090505b509050600082602001820190505b6001156126e9578080600190039150507f3031323334353637383961626364656600000000000000000000000000000000600a86061a8153600a85816126dd576126dc613c46565b5b04945060008503612694575b819350505050919050565b60008073ffffffffffffffffffffffffffffffffffffffff168373ffffffffffffffffffffffffffffffffffffffff16141580156127ac57508273ffffffffffffffffffffffffffffffffffffffff168473ffffffffffffffffffffffffffffffffffffffff16148061276d575061276c8484611646565b5b806127ab57508273ffffffffffffffffffffffffffffffffffffffff1661279383611844565b73ffffffffffffffffffffffffffffffffffffffff16145b5b90509392505050565b600073ffffffffffffffffffffffffffffffffffffffff168273ffffffffffffffffffffffffffffffffffffffff16036128275760006040517f64a0ae9200000000000000000000000000000000000000000000000000000000815260040161281e9190612c8a565b60405180910390fd5b60006128358383600061189b565b9050600073ffffffffffffffffffffffffffffffffffffffff168173ffffffffffffffffffffffffffffffffffffffff16146128a95760006040517f73c6ac6e0000000000000000000000000000000000000000000000000000000081526004016128a09190612c8a565b60405180910390fd5b505050565b600080600090507a184f03e93ff9f4daa797ed6e38ed64bf6a1f010000000000000000831061290c577a184f03e93ff9f4daa797ed6e38ed64bf6a1f010000000000000000838161290257612901613c46565b5b0492506040810190505b6d04ee2d6d415b85acef81000000008310612949576d04ee2d6d415b85acef8100000000838161293f5761293e613c46565b5b0492506020810190505b662386f26fc10000831061297857662386f26fc10000838161296e5761296d613c46565b5b0492506010810190505b6305f5e10083106129a1576305f5e100838161299757612996613c46565b5b0492506008810190505b61271083106129c65761271083816129bc576129bb613c46565b5b0492506004810190505b606483106129e957606483816129df576129de613c46565b5b0492506002810190505b600a83106129f8576001810190505b80915050919050565b6040518060c0016040528060008152602001600073ffffffffffffffffffffffffffffffffffffffff168152602001600073ffffffffffffffffffffffffffffffffffffffff16815260200160008152602001600015158152602001606081525090565b6000604051905090565b600080fd5b600080fd5b60007fffffffff0000000000000000000000000000000000000000000000000000000082169050919050565b612aae81612a79565b8114612ab957600080fd5b50565b600081359050612acb81612aa5565b92915050565b600060208284031215612ae757612ae6612a6f565b5b6000612af584828501612abc565b91505092915050565b60008115159050919050565b612b1381612afe565b82525050565b6000602082019050612b2e6000830184612b0a565b92915050565b600081519050919050565b600082825260208201905092915050565b60005b83811015612b6e578082015181840152602081019050612b53565b60008484015250505050565b6000601f19601f8301169050919050565b6000612b9682612b34565b612ba08185612b3f565b9350612bb0818560208601612b50565b612bb981612b7a565b840191505092915050565b60006020820190508181036000830152612bde8184612b8b565b905092915050565b6000819050919050565b612bf981612be6565b8114612c0457600080fd5b50565b600081359050612c1681612bf0565b92915050565b600060208284031215612c3257612c31612a6f565b5b6000612c4084828501612c07565b91505092915050565b600073ffffffffffffffffffffffffffffffffffffffff82169050919050565b6000612c7482612c49565b9050919050565b612c8481612c69565b82525050565b6000602082019050612c9f6000830184612c7b565b92915050565b612cae81612c69565b8114612cb957600080fd5b50565b600081359050612ccb81612ca5565b92915050565b60008060408385031215612ce857612ce7612a6f565b5b6000612cf685828601612cbc565b9250506020612d0785828601612c07565b9150509250929050565b612d1a81612be6565b82525050565b6000602082019050612d356000830184612d11565b92915050565b600080600060608486031215612d5457612d53612a6f565b5b6000612d6286828701612cbc565b9350506020612d7386828701612cbc565b9250506040612d8486828701612c07565b9150509250925092565b600060208284031215612da457612da3612a6f565b5b6000612db284828501612cbc565b91505092915050565b600080fd5b600080fd5b7f4e487b7100000000000000000000000000000000000000000000000000000000600052604160045260246000fd5b612dfd82612b7a565b810181811067ffffffffffffffff82111715612e1c57612e1b612dc5565b5b80604052505050565b6000612e2f612a65565b9050612e3b8282612df4565b919050565b600067ffffffffffffffff821115612e5b57612e5a612dc5565b5b612e6482612b7a565b9050602081019050919050565b82818337600083830152505050565b6000612e93612e8e84612e40565b612e25565b905082815260208101848484011115612eaf57612eae612dc0565b5b612eba848285612e71565b509392505050565b600082601f830112612ed757612ed6612dbb565b5b8135612ee7848260208601612e80565b91505092915050565b60008060408385031215612f0757612f06612a6f565b5b600083013567ffffffffffffffff811115612f2557612f24612a74565b5b612f3185828601612ec2565b9250506020612f4285828601612c07565b9150509250929050565b600081519050919050565b600082825260208201905092915050565b6000819050602082019050919050565b612f8181612be6565b82525050565b6000612f9282612c49565b9050919050565b612fa281612f87565b82525050565b612fb181612afe565b82525050565b600082825260208201905092915050565b6000612fd382612b34565b612fdd8185612fb7565b9350612fed818560208601612b50565b612ff681612b7a565b840191505092915050565b600060c0830160008301516130196000860182612f78565b50602083015161302c6020860182612f99565b50604083015161303f6040860182612f99565b5060608301516130526060860182612f78565b5060808301516130656080860182612fa8565b5060a083015184820360a086015261307d8282612fc8565b9150508091505092915050565b60006130968383613001565b905092915050565b6000602082019050919050565b60006130b682612f4c565b6130c08185612f57565b9350836020820285016130d285612f68565b8060005b8581101561310e57848403895281516130ef858261308a565b94506130fa8361309e565b925060208a019950506001810190506130d6565b50829750879550505050505092915050565b6000602082019050818103600083015261313a81846130ab565b905092915050565b6000806040838503121561315957613158612a6f565b5b600061316785828601612c07565b925050602061317885828601612c07565b9150509250929050565b61318b81612afe565b811461319657600080fd5b50565b6000813590506131a881613182565b92915050565b600080604083850312156131c5576131c4612a6f565b5b60006131d385828601612cbc565b92505060206131e485828601613199565b9150509250929050565b600067ffffffffffffffff82111561320957613208612dc5565b5b61321282612b7a565b9050602081019050919050565b600061323261322d846131ee565b612e25565b90508281526020810184848401111561324e5761324d612dc0565b5b613259848285612e71565b509392505050565b600082601f83011261327657613275612dbb565b5b813561328684826020860161321f565b91505092915050565b600080600080608085870312156132a9576132a8612a6f565b5b60006132b787828801612cbc565b94505060206132c887828801612cbc565b93505060406132d987828801612c07565b925050606085013567ffffffffffffffff8111156132fa576132f9612a74565b5b61330687828801613261565b91505092959194509250565b6000806040838503121561332957613328612a6f565b5b600061333785828601612cbc565b925050602061334885828601612cbc565b9150509250929050565b7f4e487b7100000000000000000000000000000000000000000000000000000000600052602260045260246000fd5b6000600282049050600182168061339957607f821691505b6020821081036133ac576133ab613352565b5b50919050565b60006060820190506133c76000830186612c7b565b6133d46020830185612d11565b6133e16040830184612c7b565b949350505050565b7f506c65617365207375626d6974207468652061736b696e67207072696365206960008201527f6e206f7264657220746f20636f6d706c65746520746865207075726368617365602082015250565b6000613445604083612b3f565b9150613450826133e9565b604082019050919050565b6000602082019050818103600083015261347481613438565b9050919050565b7f4e487b7100000000000000000000000000000000000000000000000000000000600052601160045260246000fd5b60006134b582612be6565b91506134c083612be6565b92508282039050818111156134d8576134d761347b565b5b92915050565b7f4e487b7100000000000000000000000000000000000000000000000000000000600052603260045260246000fd5b600061351882612be6565b91507fffffffffffffffffffffffffffffffffffffffffffffffffffffffffffffffff820361354a5761354961347b565b5b600182019050919050565b7f5072696365206d75737420626520657175616c20746f206c697374696e67207060008201527f726963652e000000000000000000000000000000000000000000000000000000602082015250565b60006135b1602583612b3f565b91506135bc82613555565b604082019050919050565b600060208201905081810360008301526135e0816135a4565b9050919050565b7f4f6e6c7920746f6b656e206f776e6572732061726520616c6c6f77656420746f60008201527f20726573656c6c2e000000000000000000000000000000000000000000000000602082015250565b6000613643602883612b3f565b915061364e826135e7565b604082019050919050565b6000602082019050818103600083015261367281613636565b9050919050565b7f4f6e6c79206f776e6572206f6620746865206d61726b6574706c61636520636160008201527f6e206368616e676520746865206c697374696e672070726963652e0000000000602082015250565b60006136d5603b83612b3f565b91506136e082613679565b604082019050919050565b60006020820190508181036000830152613704816136c8565b9050919050565b600081905092915050565b600061372182612b34565b61372b818561370b565b935061373b818560208601612b50565b80840191505092915050565b60006137538285613716565b915061375f8284613716565b91508190509392505050565b600061377682612be6565b915061378183612be6565b92508282019050808211156137995761379861347b565b5b92915050565b60008190508160005260206000209050919050565b60006020601f8301049050919050565b600082821b905092915050565b6000600883026138017fffffffffffffffffffffffffffffffffffffffffffffffffffffffffffffffff826137c4565b61380b86836137c4565b95508019841693508086168417925050509392505050565b6000819050919050565b600061384861384361383e84612be6565b613823565b612be6565b9050919050565b6000819050919050565b6138628361382d565b61387661386e8261384f565b8484546137d1565b825550505050565b600090565b61388b61387e565b613896818484613859565b505050565b5b818110156138ba576138af600082613883565b60018101905061389c565b5050565b601f8211156138ff576138d08161379f565b6138d9846137b4565b810160208510156138e8578190505b6138fc6138f4856137b4565b83018261389b565b50505b505050565b600082821c905092915050565b600061392260001984600802613904565b1980831691505092915050565b600061393b8383613911565b9150826002028217905092915050565b61395482612b34565b67ffffffffffffffff81111561396d5761396c612dc5565b5b6139778254613381565b6139828282856138be565b600060209050601f8311600181146139b557600084156139a3578287015190505b6139ad858261392f565b865550613a15565b601f1984166139c38661379f565b60005b828110156139eb578489015182556001820191506020850194506020810190506139c6565b86831015613a085784890151613a04601f891682613911565b8355505b6001600288020188555050505b505050505050565b7f5072696365206d7573742062652067726561746572207468616e207a65726f00600082015250565b6000613a53601f83612b3f565b9150613a5e82613a1d565b602082019050919050565b60006020820190508181036000830152613a8281613a46565b9050919050565b6000608082019050613a9e6000830187612c7b565b613aab6020830186612c7b565b613ab86040830185612d11565b613ac56060830184612b0a565b95945050505050565b7f436f756e7465723a20756e646572666c6f770000000000000000000000000000600082015250565b6000613b04601283612b3f565b9150613b0f82613ace565b602082019050919050565b60006020820190508181036000830152613b3381613af7565b9050919050565b600081519050919050565b600082825260208201905092915050565b6000613b6182613b3a565b613b6b8185613b45565b9350613b7b818560208601612b50565b613b8481612b7a565b840191505092915050565b6000608082019050613ba46000830187612c7b565b613bb16020830186612c7b565b613bbe6040830185612d11565b8181036060830152613bd08184613b56565b905095945050505050565b600081519050613bea81612aa5565b92915050565b600060208284031215613c0657613c05612a6f565b5b6000613c1484828501613bdb565b91505092915050565b6000604082019050613c326000830185612c7b565b613c3f6020830184612d11565b9392505050565b7f4e487b7100000000000000000000000000000000000000000000000000000000600052601260045260246000fdfea2646970667358221220aad08f3fd99a9ba28a38e61f9077c468d8f13a83a9d85499ee37fc7e6249929c64736f6c634300081b0033",
  "linkReferences": {},
  "deployedLinkReferences": {}
}