{
  "_format": "hh-sol-artifact-1",
  "contractName": "NFTMarketplace",
  "sourceName": "contracts/NFTMarketplace.sol",
  "abi": [
    {
      "inputs": [],
      "stateMutability": "nonpayable",
      "type": "constructor"
    },
    {
      "inputs": [
        {
          "internalType": "address",
          "name": "sender",
          "type": "address"
        },
        {
          "internalType": "uint256",
          "name": "tokenId",
          "type": "uint256"
        },
        {
          "internalType": "address",
          "name": "owner",
          "type": "address"
        }
      ],
      "name": "ERC721IncorrectOwner",
      "type": "error"
    },
    {
      "inputs": [
        {
          "internalType": "address",
          "name": "operator",
          "type": "address"
        },
        {
          "internalType": "uint256",
          "name": "tokenId",
          "type": "uint256"
        }
      ],
      "name": "ERC721InsufficientApproval",
      "type": "error"
    },
    {
      "inputs": [
        {
          "internalType": "address",
          "name": "approver",
          "type": "address"
        }
      ],
      "name": "ERC721InvalidApprover",
      "type": "error"
    },
    {
      "inputs": [
        {
          "internalType": "address",
          "name": "operator",
          "type": "address"
        }
      ],
      "name": "ERC721InvalidOperator",
      "type": "error"
    },
    {
      "inputs": [
        {
          "internalType": "address",
          "name": "owner",
          "type": "address"
        }
      ],
      "name": "ERC721InvalidOwner",
      "type": "error"
    },
    {
      "inputs": [
        {
          "internalType": "address",
          "name": "receiver",
          "type": "address"
        }
      ],
      "name": "ERC721InvalidReceiver",
      "type": "error"
    },
    {
      "inputs": [
        {
          "internalType": "address",
          "name": "sender",
          "type": "address"
        }
      ],
      "name": "ERC721InvalidSender",
      "type": "error"
    },
    {
      "inputs": [
        {
          "internalType": "uint256",
          "name": "tokenId",
          "type": "uint256"
        }
      ],
      "name": "ERC721NonexistentToken",
      "type": "error"
    },
    {
      "anonymous": false,
      "inputs": [
        {
          "indexed": true,
          "internalType": "address",
          "name": "owner",
          "type": "address"
        },
        {
          "indexed": true,
          "internalType": "address",
          "name": "approved",
          "type": "address"
        },
        {
          "indexed": true,
          "internalType": "uint256",
          "name": "tokenId",
          "type": "uint256"
        }
      ],
      "name": "Approval",
      "type": "event"
    },
    {
      "anonymous": false,
      "inputs": [
        {
          "indexed": true,
          "internalType": "address",
          "name": "owner",
          "type": "address"
        },
        {
          "indexed": true,
          "internalType": "address",
          "name": "operator",
          "type": "address"
        },
        {
          "indexed": false,
          "internalType": "bool",
          "name": "approved",
          "type": "bool"
        }
      ],
      "name": "ApprovalForAll",
      "type": "event"
    },
    {
      "anonymous": false,
      "inputs": [
        {
          "indexed": false,
          "internalType": "uint256",
          "name": "_fromTokenId",
          "type": "uint256"
        },
        {
          "indexed": false,
          "internalType": "uint256",
          "name": "_toTokenId",
          "type": "uint256"
        }
      ],
      "name": "BatchMetadataUpdate",
      "type": "event"
    },
    {
      "anonymous": false,
      "inputs": [
        {
          "indexed": false,
          "internalType": "uint256",
          "name": "_tokenId",
          "type": "uint256"
        }
      ],
      "name": "MetadataUpdate",
      "type": "event"
    },
    {
      "anonymous": false,
      "inputs": [
        {
          "indexed": true,
          "internalType": "address",
          "name": "from",
          "type": "address"
        },
        {
          "indexed": true,
          "internalType": "address",
          "name": "to",
          "type": "address"
        },
        {
          "indexed": true,
          "internalType": "uint256",
          "name": "tokenId",
          "type": "uint256"
        }
      ],
      "name": "Transfer",
      "type": "event"
    },
    {
      "anonymous": false,
      "inputs": [
        {
          "indexed": true,
          "internalType": "uint256",
          "name": "tokenId",
          "type": "uint256"
        },
        {
          "indexed": false,
          "internalType": "address",
          "name": "seller",
          "type": "address"
        },
        {
          "indexed": false,
          "internalType": "address",
          "name": "owner",
          "type": "address"
        },
        {
          "indexed": false,
          "internalType": "uint256",
          "name": "price",
          "type": "uint256"
        },
        {
          "indexed": false,
          "internalType": "bool",
          "name": "sold",
          "type": "bool"
        }
      ],
      "name": "idMarketItemCreated",
      "type": "event"
    },
    {
      "inputs": [
        {
          "internalType": "address",
          "name": "to",
          "type": "address"
        },
        {
          "internalType": "uint256",
          "name": "tokenId",
          "type": "uint256"
        }
      ],
      "name": "approve",
      "outputs": [],
      "stateMutability": "nonpayable",
      "type": "function"
    },
    {
      "inputs": [
        {
          "internalType": "address",
          "name": "owner",
          "type": "address"
        }
      ],
      "name": "balanceOf",
      "outputs": [
        {
          "internalType": "uint256",
          "name": "",
          "type": "uint256"
        }
      ],
      "stateMutability": "view",
      "type": "function"
    },
    {
      "inputs": [
        {
          "internalType": "uint256",
          "name": "tokenId",
          "type": "uint256"
        }
      ],
      "name": "buyToken",
      "outputs": [],
      "stateMutability": "payable",
      "type": "function"
    },
    {
      "inputs": [
        {
          "internalType": "string",
          "name": "tokenURI",
          "type": "string"
        },
        {
          "internalType": "uint256",
          "name": "price",
          "type": "uint256"
        }
      ],
      "name": "createToken",
      "outputs": [
        {
          "internalType": "uint256",
          "name": "tokenId",
          "type": "uint256"
        }
      ],
      "stateMutability": "payable",
      "type": "function"
    },
    {
      "inputs": [],
      "name": "fetchListedNFTsByUser",
      "outputs": [
        {
          "components": [
            {
              "internalType": "uint256",
              "name": "tokenId",
              "type": "uint256"
            },
            {
              "internalType": "address payable",
              "name": "seller",
              "type": "address"
            },
            {
              "internalType": "address payable",
              "name": "owner",
              "type": "address"
            },
            {
              "internalType": "uint256",
              "name": "price",
              "type": "uint256"
            },
            {
              "internalType": "bool",
              "name": "sold",
              "type": "bool"
            }
          ],
          "internalType": "struct NFTMarketplace.MarketItem[]",
          "name": "",
          "type": "tuple[]"
        }
      ],
      "stateMutability": "view",
      "type": "function"
    },
    {
      "inputs": [],
      "name": "fetchPurchasedNFTsByUser",
      "outputs": [
        {
          "components": [
            {
              "internalType": "uint256",
              "name": "tokenId",
              "type": "uint256"
            },
            {
              "internalType": "address payable",
              "name": "seller",
              "type": "address"
            },
            {
              "internalType": "address payable",
              "name": "owner",
              "type": "address"
            },
            {
              "internalType": "uint256",
              "name": "price",
              "type": "uint256"
            },
            {
              "internalType": "bool",
              "name": "sold",
              "type": "bool"
            }
          ],
          "internalType": "struct NFTMarketplace.MarketItem[]",
          "name": "",
          "type": "tuple[]"
        }
      ],
      "stateMutability": "view",
      "type": "function"
    },
    {
      "inputs": [],
      "name": "fetchUnsoldMarketItem",
      "outputs": [
        {
          "components": [
            {
              "internalType": "uint256",
              "name": "tokenId",
              "type": "uint256"
            },
            {
              "internalType": "address payable",
              "name": "seller",
              "type": "address"
            },
            {
              "internalType": "address payable",
              "name": "owner",
              "type": "address"
            },
            {
              "internalType": "uint256",
              "name": "price",
              "type": "uint256"
            },
            {
              "internalType": "bool",
              "name": "sold",
              "type": "bool"
            }
          ],
          "internalType": "struct NFTMarketplace.MarketItem[]",
          "name": "",
          "type": "tuple[]"
        }
      ],
      "stateMutability": "view",
      "type": "function"
    },
    {
      "inputs": [
        {
          "internalType": "uint256",
          "name": "tokenId",
          "type": "uint256"
        }
      ],
      "name": "getApproved",
      "outputs": [
        {
          "internalType": "address",
          "name": "",
          "type": "address"
        }
      ],
      "stateMutability": "view",
      "type": "function"
    },
    {
      "inputs": [],
      "name": "getListingPrice",
      "outputs": [
        {
          "internalType": "uint256",
          "name": "",
          "type": "uint256"
        }
      ],
      "stateMutability": "view",
      "type": "function"
    },
    {
      "inputs": [
        {
          "internalType": "address",
          "name": "owner",
          "type": "address"
        },
        {
          "internalType": "address",
          "name": "operator",
          "type": "address"
        }
      ],
      "name": "isApprovedForAll",
      "outputs": [
        {
          "internalType": "bool",
          "name": "",
          "type": "bool"
        }
      ],
      "stateMutability": "view",
      "type": "function"
    },
    {
      "inputs": [],
      "name": "name",
      "outputs": [
        {
          "internalType": "string",
          "name": "",
          "type": "string"
        }
      ],
      "stateMutability": "view",
      "type": "function"
    },
    {
      "inputs": [
        {
          "internalType": "uint256",
          "name": "tokenId",
          "type": "uint256"
        }
      ],
      "name": "ownerOf",
      "outputs": [
        {
          "internalType": "address",
          "name": "",
          "type": "address"
        }
      ],
      "stateMutability": "view",
      "type": "function"
    },
    {
      "inputs": [
        {
          "internalType": "uint256",
          "name": "tokenId",
          "type": "uint256"
        },
        {
          "internalType": "uint256",
          "name": "price",
          "type": "uint256"
        }
      ],
      "name": "reSellToken",
      "outputs": [],
      "stateMutability": "payable",
      "type": "function"
    },
    {
      "inputs": [
        {
          "internalType": "address",
          "name": "from",
          "type": "address"
        },
        {
          "internalType": "address",
          "name": "to",
          "type": "address"
        },
        {
          "internalType": "uint256",
          "name": "tokenId",
          "type": "uint256"
        }
      ],
      "name": "safeTransferFrom",
      "outputs": [],
      "stateMutability": "nonpayable",
      "type": "function"
    },
    {
      "inputs": [
        {
          "internalType": "address",
          "name": "from",
          "type": "address"
        },
        {
          "internalType": "address",
          "name": "to",
          "type": "address"
        },
        {
          "internalType": "uint256",
          "name": "tokenId",
          "type": "uint256"
        },
        {
          "internalType": "bytes",
          "name": "data",
          "type": "bytes"
        }
      ],
      "name": "safeTransferFrom",
      "outputs": [],
      "stateMutability": "nonpayable",
      "type": "function"
    },
    {
      "inputs": [
        {
          "internalType": "address",
          "name": "operator",
          "type": "address"
        },
        {
          "internalType": "bool",
          "name": "approved",
          "type": "bool"
        }
      ],
      "name": "setApprovalForAll",
      "outputs": [],
      "stateMutability": "nonpayable",
      "type": "function"
    },
    {
      "inputs": [
        {
          "internalType": "bytes4",
          "name": "interfaceId",
          "type": "bytes4"
        }
      ],
      "name": "supportsInterface",
      "outputs": [
        {
          "internalType": "bool",
          "name": "",
          "type": "bool"
        }
      ],
      "stateMutability": "view",
      "type": "function"
    },
    {
      "inputs": [],
      "name": "symbol",
      "outputs": [
        {
          "internalType": "string",
          "name": "",
          "type": "string"
        }
      ],
      "stateMutability": "view",
      "type": "function"
    },
    {
      "inputs": [
        {
          "internalType": "uint256",
          "name": "tokenId",
          "type": "uint256"
        }
      ],
      "name": "tokenURI",
      "outputs": [
        {
          "internalType": "string",
          "name": "",
          "type": "string"
        }
      ],
      "stateMutability": "view",
      "type": "function"
    },
    {
      "inputs": [
        {
          "internalType": "address",
          "name": "from",
          "type": "address"
        },
        {
          "internalType": "address",
          "name": "to",
          "type": "address"
        },
        {
          "internalType": "uint256",
          "name": "tokenId",
          "type": "uint256"
        }
      ],
      "name": "transferFrom",
      "outputs": [],
      "stateMutability": "nonpayable",
      "type": "function"
    },
    {
      "inputs": [
        {
          "internalType": "uint256",
          "name": "_listingPrice",
          "type": "uint256"
        }
      ],
      "name": "updateListingPrice",
      "outputs": [],
      "stateMutability": "payable",
      "type": "function"
    }
  ],
  "bytecode": "0x60806040526608e1bc9bf0400060095534801561001b57600080fd5b506040518060400160405280601381526020017f4e4654204d657461766572736520546f6b656e000000000000000000000000008152506040518060400160405280600581526020017f4d594e465400000000000000000000000000000000000000000000000000000081525081600090816100979190610340565b5080600190816100a79190610340565b50505033600a60006101000a81548173ffffffffffffffffffffffffffffffffffffffff021916908373ffffffffffffffffffffffffffffffffffffffff160217905550610412565b600081519050919050565b7f4e487b7100000000000000000000000000000000000000000000000000000000600052604160045260246000fd5b7f4e487b7100000000000000000000000000000000000000000000000000000000600052602260045260246000fd5b6000600282049050600182168061017157607f821691505b6020821081036101845761018361012a565b5b50919050565b60008190508160005260206000209050919050565b60006020601f8301049050919050565b600082821b905092915050565b6000600883026101ec7fffffffffffffffffffffffffffffffffffffffffffffffffffffffffffffffff826101af565b6101f686836101af565b95508019841693508086168417925050509392505050565b6000819050919050565b6000819050919050565b600061023d6102386102338461020e565b610218565b61020e565b9050919050565b6000819050919050565b61025783610222565b61026b61026382610244565b8484546101bc565b825550505050565b600090565b610280610273565b61028b81848461024e565b505050565b5b818110156102af576102a4600082610278565b600181019050610291565b5050565b601f8211156102f4576102c58161018a565b6102ce8461019f565b810160208510156102dd578190505b6102f16102e98561019f565b830182610290565b50505b505050565b600082821c905092915050565b6000610317600019846008026102f9565b1980831691505092915050565b60006103308383610306565b9150826002028217905092915050565b610349826100f0565b67ffffffffffffffff811115610362576103616100fb565b5b61036c8254610159565b6103778282856102b3565b600060209050601f8311600181146103aa5760008415610398578287015190505b6103a28582610324565b86555061040a565b601f1984166103b88661018a565b60005b828110156103e0578489015182556001820191506020850194506020810190506103bb565b868310156103fd57848901516103f9601f891682610306565b8355505b6001600288020188555050505b505050505050565b613c71806104216000396000f3fe60806040526004361061012a5760003560e01c806372b3b620116100ab578063ae677aa31161006f578063ae677aa3146103db578063b88d4fde146103f7578063c87b56dd14610420578063cc7c4e101461045d578063d1c3b94b14610488578063e985e9c5146104b35761012a565b806372b3b6201461031057806384fb7a241461034057806385535b251461036b57806395d89b4114610387578063a22cb465146103b25761012a565b806323b872dd116100f257806323b872dd146102285780632d296bf11461025157806342842e0e1461026d5780636352211e1461029657806370a08231146102d35761012a565b806301ffc9a71461012f57806306fdde031461016c578063081812fc14610197578063095ea7b3146101d457806312e85585146101fd575b600080fd5b34801561013b57600080fd5b5061015660048036038101906101519190612b15565b6104f0565b6040516101639190612b5d565b60405180910390f35b34801561017857600080fd5b50610181610551565b60405161018e9190612c08565b60405180910390f35b3480156101a357600080fd5b506101be60048036038101906101b99190612c60565b6105e3565b6040516101cb9190612cce565b60405180910390f35b3480156101e057600080fd5b506101fb60048036038101906101f69190612d15565b6105ff565b005b34801561020957600080fd5b50610212610615565b60405161021f9190612d64565b60405180910390f35b34801561023457600080fd5b5061024f600480360381019061024a9190612d7f565b61061f565b005b61026b60048036038101906102669190612c60565b610721565b005b34801561027957600080fd5b50610294600480360381019061028f9190612d7f565b610903565b005b3480156102a257600080fd5b506102bd60048036038101906102b89190612c60565b610923565b6040516102ca9190612cce565b60405180910390f35b3480156102df57600080fd5b506102fa60048036038101906102f59190612dd2565b610935565b6040516103079190612d64565b60405180910390f35b61032a60048036038101906103259190612f34565b6109ef565b6040516103379190612d64565b60405180910390f35b34801561034c57600080fd5b50610355610a31565b60405161036291906130e6565b60405180910390f35b61038560048036038101906103809190613108565b610ca2565b005b34801561039357600080fd5b5061039c610e97565b6040516103a99190612c08565b60405180910390f35b3480156103be57600080fd5b506103d960048036038101906103d49190613174565b610f29565b005b6103f560048036038101906103f09190612c60565b610f3f565b005b34801561040357600080fd5b5061041e60048036038101906104199190613255565b610fd9565b005b34801561042c57600080fd5b5061044760048036038101906104429190612c60565b610ffe565b6040516104549190612c08565b60405180910390f35b34801561046957600080fd5b50610472611111565b60405161047f91906130e6565b60405180910390f35b34801561049457600080fd5b5061049d6113d1565b6040516104aa91906130e6565b60405180910390f35b3480156104bf57600080fd5b506104da60048036038101906104d591906132d8565b611691565b6040516104e79190612b5d565b60405180910390f35b6000634906490660e01b7bffffffffffffffffffffffffffffffffffffffffffffffffffffffff1916827bffffffffffffffffffffffffffffffffffffffffffffffffffffffff1916148061054a575061054982611725565b5b9050919050565b60606000805461056090613347565b80601f016020809104026020016040519081016040528092919081815260200182805461058c90613347565b80156105d95780601f106105ae576101008083540402835291602001916105d9565b820191906000526020600020905b8154815290600101906020018083116105bc57829003601f168201915b5050505050905090565b60006105ee82611807565b506105f88261188f565b9050919050565b610611828261060c6118cc565b6118d4565b5050565b6000600954905090565b600073ffffffffffffffffffffffffffffffffffffffff168273ffffffffffffffffffffffffffffffffffffffff16036106915760006040517f64a0ae920000000000000000000000000000000000000000000000000000000081526004016106889190612cce565b60405180910390fd5b60006106a583836106a06118cc565b6118e6565b90508373ffffffffffffffffffffffffffffffffffffffff168173ffffffffffffffffffffffffffffffffffffffff161461071b578382826040517f64283d7b00000000000000000000000000000000000000000000000000000000815260040161071293929190613378565b60405180910390fd5b50505050565b6000600b600083815260200190815260200160002060030154905080341461077e576040517f08c379a000000000000000000000000000000000000000000000000000000000815260040161077590613421565b60405180910390fd5b6001600b600084815260200190815260200160002060040160006101000a81548160ff02191690831515021790555033600b600084815260200190815260200160002060020160006101000a81548173ffffffffffffffffffffffffffffffffffffffff021916908373ffffffffffffffffffffffffffffffffffffffff16021790555061080c6008611b00565b610817303384611b1f565b600a60009054906101000a900473ffffffffffffffffffffffffffffffffffffffff1673ffffffffffffffffffffffffffffffffffffffff166108fc6009549081150290604051600060405180830381858888f19350505050158015610881573d6000803e3d6000fd5b50600b600083815260200190815260200160002060010160009054906101000a900473ffffffffffffffffffffffffffffffffffffffff1673ffffffffffffffffffffffffffffffffffffffff166108fc349081150290604051600060405180830381858888f193505050501580156108fe573d6000803e3d6000fd5b505050565b61091e83838360405180602001604052806000815250610fd9565b505050565b600061092e82611807565b9050919050565b60008073ffffffffffffffffffffffffffffffffffffffff168273ffffffffffffffffffffffffffffffffffffffff16036109a85760006040517f89c62b6400000000000000000000000000000000000000000000000000000000815260040161099f9190612cce565b60405180910390fd5b600360008373ffffffffffffffffffffffffffffffffffffffff1673ffffffffffffffffffffffffffffffffffffffff168152602001908152602001600020549050919050565b60006109fb6007611b00565b6000610a076007611c8c565b9050610a133382611c9a565b610a1d8185611cb8565b610a278184611d14565b8091505092915050565b60606000610a3f6007611c8c565b90506000610a4d6008611c8c565b82610a589190613470565b90506000808267ffffffffffffffff811115610a7757610a76612e09565b5b604051908082528060200260200182016040528015610ab057816020015b610a9d612a4c565b815260200190600190039081610a955790505b5090506000600190505b848111610c975760001515600b600083815260200190815260200160002060040160009054906101000a900460ff161515148015610b5957503073ffffffffffffffffffffffffffffffffffffffff16600b600083815260200190815260200160002060020160009054906101000a900473ffffffffffffffffffffffffffffffffffffffff1673ffffffffffffffffffffffffffffffffffffffff16145b15610c8457600b60008281526020019081526020016000206040518060a0016040529081600082015481526020016001820160009054906101000a900473ffffffffffffffffffffffffffffffffffffffff1673ffffffffffffffffffffffffffffffffffffffff1673ffffffffffffffffffffffffffffffffffffffff1681526020016002820160009054906101000a900473ffffffffffffffffffffffffffffffffffffffff1673ffffffffffffffffffffffffffffffffffffffff1673ffffffffffffffffffffffffffffffffffffffff168152602001600382015481526020016004820160009054906101000a900460ff161515151581525050828481518110610c6a57610c696134a4565b5b60200260200101819052508280610c80906134d3565b9350505b8080610c8f906134d3565b915050610aba565b508094505050505090565b6009543414610ce6576040517f08c379a0000000000000000000000000000000000000000000000000000000008152600401610cdd9061358d565b60405180910390fd5b3373ffffffffffffffffffffffffffffffffffffffff16600b600084815260200190815260200160002060020160009054906101000a900473ffffffffffffffffffffffffffffffffffffffff1673ffffffffffffffffffffffffffffffffffffffff1614610d8a576040517f08c379a0000000000000000000000000000000000000000000000000000000008152600401610d819061361f565b60405180910390fd5b6000600b600084815260200190815260200160002060040160006101000a81548160ff02191690831515021790555080600b60008481526020019081526020016000206003018190555033600b600084815260200190815260200160002060010160006101000a81548173ffffffffffffffffffffffffffffffffffffffff021916908373ffffffffffffffffffffffffffffffffffffffff16021790555030600b600084815260200190815260200160002060020160006101000a81548173ffffffffffffffffffffffffffffffffffffffff021916908373ffffffffffffffffffffffffffffffffffffffff160217905550610e886008611f17565b610e93333084611b1f565b5050565b606060018054610ea690613347565b80601f0160208091040260200160405190810160405280929190818152602001828054610ed290613347565b8015610f1f5780601f10610ef457610100808354040283529160200191610f1f565b820191906000526020600020905b815481529060010190602001808311610f0257829003601f168201915b5050505050905090565b610f3b610f346118cc565b8383611f7d565b5050565b600a60009054906101000a900473ffffffffffffffffffffffffffffffffffffffff1673ffffffffffffffffffffffffffffffffffffffff163373ffffffffffffffffffffffffffffffffffffffff1614610fcf576040517f08c379a0000000000000000000000000000000000000000000000000000000008152600401610fc6906136b1565b60405180910390fd5b8060098190555050565b610fe484848461061f565b610ff8610fef6118cc565b858585856120ec565b50505050565b606061100982611807565b50600060066000848152602001908152602001600020805461102a90613347565b80601f016020809104026020016040519081016040528092919081815260200182805461105690613347565b80156110a35780601f10611078576101008083540402835291602001916110a3565b820191906000526020600020905b81548152906001019060200180831161108657829003601f168201915b5050505050905060006110b461229d565b905060008151036110c957819250505061110c565b6000825111156110fe5780826040516020016110e692919061370d565b6040516020818303038152906040529250505061110c565b611107846122b4565b925050505b919050565b6060600061111f6007611c8c565b90506000806000600190505b8381116111bd573373ffffffffffffffffffffffffffffffffffffffff16600b600083815260200190815260200160002060010160009054906101000a900473ffffffffffffffffffffffffffffffffffffffff1673ffffffffffffffffffffffffffffffffffffffff16036111aa5782806111a6906134d3565b9350505b80806111b5906134d3565b91505061112b565b5060008267ffffffffffffffff8111156111da576111d9612e09565b5b60405190808252806020026020018201604052801561121357816020015b611200612a4c565b8152602001906001900390816111f85790505b5090506000600190505b8481116113c6573373ffffffffffffffffffffffffffffffffffffffff16600b600083815260200190815260200160002060020160009054906101000a900473ffffffffffffffffffffffffffffffffffffffff1673ffffffffffffffffffffffffffffffffffffffff16036113b357600b60008281526020019081526020016000206040518060a0016040529081600082015481526020016001820160009054906101000a900473ffffffffffffffffffffffffffffffffffffffff1673ffffffffffffffffffffffffffffffffffffffff1673ffffffffffffffffffffffffffffffffffffffff1681526020016002820160009054906101000a900473ffffffffffffffffffffffffffffffffffffffff1673ffffffffffffffffffffffffffffffffffffffff1673ffffffffffffffffffffffffffffffffffffffff168152602001600382015481526020016004820160009054906101000a900460ff161515151581525050828481518110611399576113986134a4565b5b602002602001018190525082806113af906134d3565b9350505b80806113be906134d3565b91505061121d565b508094505050505090565b606060006113df6007611c8c565b90506000806000600190505b83811161147d573373ffffffffffffffffffffffffffffffffffffffff16600b600083815260200190815260200160002060020160009054906101000a900473ffffffffffffffffffffffffffffffffffffffff1673ffffffffffffffffffffffffffffffffffffffff160361146a578280611466906134d3565b9350505b8080611475906134d3565b9150506113eb565b5060008267ffffffffffffffff81111561149a57611499612e09565b5b6040519080825280602002602001820160405280156114d357816020015b6114c0612a4c565b8152602001906001900390816114b85790505b5090506000600190505b848111611686573373ffffffffffffffffffffffffffffffffffffffff16600b600083815260200190815260200160002060020160009054906101000a900473ffffffffffffffffffffffffffffffffffffffff1673ffffffffffffffffffffffffffffffffffffffff160361167357600b60008281526020019081526020016000206040518060a0016040529081600082015481526020016001820160009054906101000a900473ffffffffffffffffffffffffffffffffffffffff1673ffffffffffffffffffffffffffffffffffffffff1673ffffffffffffffffffffffffffffffffffffffff1681526020016002820160009054906101000a900473ffffffffffffffffffffffffffffffffffffffff1673ffffffffffffffffffffffffffffffffffffffff1673ffffffffffffffffffffffffffffffffffffffff168152602001600382015481526020016004820160009054906101000a900460ff161515151581525050828481518110611659576116586134a4565b5b6020026020010181905250828061166f906134d3565b9350505b808061167e906134d3565b9150506114dd565b508094505050505090565b6000600560008473ffffffffffffffffffffffffffffffffffffffff1673ffffffffffffffffffffffffffffffffffffffff16815260200190815260200160002060008373ffffffffffffffffffffffffffffffffffffffff1673ffffffffffffffffffffffffffffffffffffffff16815260200190815260200160002060009054906101000a900460ff16905092915050565b60007f80ac58cd000000000000000000000000000000000000000000000000000000007bffffffffffffffffffffffffffffffffffffffffffffffffffffffff1916827bffffffffffffffffffffffffffffffffffffffffffffffffffffffff191614806117f057507f5b5e139f000000000000000000000000000000000000000000000000000000007bffffffffffffffffffffffffffffffffffffffffffffffffffffffff1916827bffffffffffffffffffffffffffffffffffffffffffffffffffffffff1916145b8061180057506117ff8261231d565b5b9050919050565b60008061181383612387565b9050600073ffffffffffffffffffffffffffffffffffffffff168173ffffffffffffffffffffffffffffffffffffffff160361188657826040517f7e27328900000000000000000000000000000000000000000000000000000000815260040161187d9190612d64565b60405180910390fd5b80915050919050565b60006004600083815260200190815260200160002060009054906101000a900473ffffffffffffffffffffffffffffffffffffffff169050919050565b600033905090565b6118e183838360016123c4565b505050565b6000806118f284612387565b9050600073ffffffffffffffffffffffffffffffffffffffff168373ffffffffffffffffffffffffffffffffffffffff161461193457611933818486612589565b5b600073ffffffffffffffffffffffffffffffffffffffff168173ffffffffffffffffffffffffffffffffffffffff16146119c5576119766000856000806123c4565b6001600360008373ffffffffffffffffffffffffffffffffffffffff1673ffffffffffffffffffffffffffffffffffffffff168152602001908152602001600020600082825403925050819055505b600073ffffffffffffffffffffffffffffffffffffffff168573ffffffffffffffffffffffffffffffffffffffff1614611a48576001600360008773ffffffffffffffffffffffffffffffffffffffff1673ffffffffffffffffffffffffffffffffffffffff168152602001908152602001600020600082825401925050819055505b846002600086815260200190815260200160002060006101000a81548173ffffffffffffffffffffffffffffffffffffffff021916908373ffffffffffffffffffffffffffffffffffffffff160217905550838573ffffffffffffffffffffffffffffffffffffffff168273ffffffffffffffffffffffffffffffffffffffff167fddf252ad1be2c89b69c2b068fc378daa952ba7f163c4a11628f55a4df523b3ef60405160405180910390a4809150509392505050565b6001816000016000828254611b159190613731565b9250508190555050565b600073ffffffffffffffffffffffffffffffffffffffff168273ffffffffffffffffffffffffffffffffffffffff1603611b915760006040517f64a0ae92000000000000000000000000000000000000000000000000000000008152600401611b889190612cce565b60405180910390fd5b6000611b9f838360006118e6565b9050600073ffffffffffffffffffffffffffffffffffffffff168173ffffffffffffffffffffffffffffffffffffffff1603611c1257816040517f7e273289000000000000000000000000000000000000000000000000000000008152600401611c099190612d64565b60405180910390fd5b8373ffffffffffffffffffffffffffffffffffffffff168173ffffffffffffffffffffffffffffffffffffffff1614611c86578382826040517f64283d7b000000000000000000000000000000000000000000000000000000008152600401611c7d93929190613378565b60405180910390fd5b50505050565b600081600001549050919050565b611cb482826040518060200160405280600081525061264d565b5050565b80600660008481526020019081526020016000209081611cd89190613911565b507ff8e1a15aba9398e019f0b49df1a4fde98ee17ae345cb5f6b5e2c27f5033e8ce782604051611d089190612d64565b60405180910390a15050565b6009543414611d58576040517f08c379a0000000000000000000000000000000000000000000000000000000008152600401611d4f9061358d565b60405180910390fd5b60008111611d9b576040517f08c379a0000000000000000000000000000000000000000000000000000000008152600401611d9290613a2f565b60405180910390fd5b6040518060a001604052808381526020013373ffffffffffffffffffffffffffffffffffffffff1681526020013073ffffffffffffffffffffffffffffffffffffffff16815260200182815260200160001515815250600b60008481526020019081526020016000206000820151816000015560208201518160010160006101000a81548173ffffffffffffffffffffffffffffffffffffffff021916908373ffffffffffffffffffffffffffffffffffffffff16021790555060408201518160020160006101000a81548173ffffffffffffffffffffffffffffffffffffffff021916908373ffffffffffffffffffffffffffffffffffffffff1602179055506060820151816003015560808201518160040160006101000a81548160ff021916908315150217905550905050611ed4333084611b1f565b817fdebdb32cb5230ab727c9c361b16fdb2015df225c10e6a3e7f60ecd5dc5be45163330846000604051611f0b9493929190613a4f565b60405180910390a25050565b6000816000015411611f5e576040517f08c379a0000000000000000000000000000000000000000000000000000000008152600401611f5590613ae0565b60405180910390fd5b6001816000016000828254611f739190613470565b9250508190555050565b600073ffffffffffffffffffffffffffffffffffffffff168273ffffffffffffffffffffffffffffffffffffffff1603611fee57816040517f5b08ba18000000000000000000000000000000000000000000000000000000008152600401611fe59190612cce565b60405180910390fd5b80600560008573ffffffffffffffffffffffffffffffffffffffff1673ffffffffffffffffffffffffffffffffffffffff16815260200190815260200160002060008473ffffffffffffffffffffffffffffffffffffffff1673ffffffffffffffffffffffffffffffffffffffff16815260200190815260200160002060006101000a81548160ff0219169083151502179055508173ffffffffffffffffffffffffffffffffffffffff168373ffffffffffffffffffffffffffffffffffffffff167f17307eab39ab6107e8899845ad3d59bd9653f200f220920489ca2b5937696c31836040516120df9190612b5d565b60405180910390a3505050565b60008373ffffffffffffffffffffffffffffffffffffffff163b1115612296578273ffffffffffffffffffffffffffffffffffffffff1663150b7a02868685856040518563ffffffff1660e01b815260040161214b9493929190613b55565b6020604051808303816000875af192505050801561218757506040513d601f19601f820116820180604052508101906121849190613bb6565b60015b61220b573d80600081146121b7576040519150601f19603f3d011682016040523d82523d6000602084013e6121bc565b606091505b50600081510361220357836040517f64a0ae920000000000000000000000000000000000000000000000000000000081526004016121fa9190612cce565b60405180910390fd5b805181602001fd5b63150b7a0260e01b7bffffffffffffffffffffffffffffffffffffffffffffffffffffffff1916817bffffffffffffffffffffffffffffffffffffffffffffffffffffffff19161461229457836040517f64a0ae9200000000000000000000000000000000000000000000000000000000815260040161228b9190612cce565b60405180910390fd5b505b5050505050565b606060405180602001604052806000815250905090565b60606122bf82611807565b5060006122ca61229d565b905060008151116122ea5760405180602001604052806000815250612315565b806122f484612671565b60405160200161230592919061370d565b6040516020818303038152906040525b915050919050565b60007f01ffc9a7000000000000000000000000000000000000000000000000000000007bffffffffffffffffffffffffffffffffffffffffffffffffffffffff1916827bffffffffffffffffffffffffffffffffffffffffffffffffffffffff1916149050919050565b60006002600083815260200190815260200160002060009054906101000a900473ffffffffffffffffffffffffffffffffffffffff169050919050565b80806123fd5750600073ffffffffffffffffffffffffffffffffffffffff168273ffffffffffffffffffffffffffffffffffffffff1614155b1561253157600061240d84611807565b9050600073ffffffffffffffffffffffffffffffffffffffff168373ffffffffffffffffffffffffffffffffffffffff161415801561247857508273ffffffffffffffffffffffffffffffffffffffff168173ffffffffffffffffffffffffffffffffffffffff1614155b801561248b57506124898184611691565b155b156124cd57826040517fa9fbf51f0000000000000000000000000000000000000000000000000000000081526004016124c49190612cce565b60405180910390fd5b811561252f57838573ffffffffffffffffffffffffffffffffffffffff168273ffffffffffffffffffffffffffffffffffffffff167f8c5be1e5ebec7d5bd14f71427d1e84f3dd0314c0f7b2291e5b200ac8c7c3b92560405160405180910390a45b505b836004600085815260200190815260200160002060006101000a81548173ffffffffffffffffffffffffffffffffffffffff021916908373ffffffffffffffffffffffffffffffffffffffff16021790555050505050565b61259483838361273f565b61264857600073ffffffffffffffffffffffffffffffffffffffff168373ffffffffffffffffffffffffffffffffffffffff160361260957806040517f7e2732890000000000000000000000000000000000000000000000000000000081526004016126009190612d64565b60405180910390fd5b81816040517f177e802f00000000000000000000000000000000000000000000000000000000815260040161263f929190613be3565b60405180910390fd5b505050565b6126578383612800565b61266c6126626118cc565b60008585856120ec565b505050565b606060006001612680846128f9565b01905060008167ffffffffffffffff81111561269f5761269e612e09565b5b6040519080825280601f01601f1916602001820160405280156126d15781602001600182028036833780820191505090505b509050600082602001820190505b600115612734578080600190039150507f3031323334353637383961626364656600000000000000000000000000000000600a86061a8153600a858161272857612727613c0c565b5b049450600085036126df575b819350505050919050565b60008073ffffffffffffffffffffffffffffffffffffffff168373ffffffffffffffffffffffffffffffffffffffff16141580156127f757508273ffffffffffffffffffffffffffffffffffffffff168473ffffffffffffffffffffffffffffffffffffffff1614806127b857506127b78484611691565b5b806127f657508273ffffffffffffffffffffffffffffffffffffffff166127de8361188f565b73ffffffffffffffffffffffffffffffffffffffff16145b5b90509392505050565b600073ffffffffffffffffffffffffffffffffffffffff168273ffffffffffffffffffffffffffffffffffffffff16036128725760006040517f64a0ae920000000000000000000000000000000000000000000000000000000081526004016128699190612cce565b60405180910390fd5b6000612880838360006118e6565b9050600073ffffffffffffffffffffffffffffffffffffffff168173ffffffffffffffffffffffffffffffffffffffff16146128f45760006040517f73c6ac6e0000000000000000000000000000000000000000000000000000000081526004016128eb9190612cce565b60405180910390fd5b505050565b600080600090507a184f03e93ff9f4daa797ed6e38ed64bf6a1f0100000000000000008310612957577a184f03e93ff9f4daa797ed6e38ed64bf6a1f010000000000000000838161294d5761294c613c0c565b5b0492506040810190505b6d04ee2d6d415b85acef81000000008310612994576d04ee2d6d415b85acef8100000000838161298a57612989613c0c565b5b0492506020810190505b662386f26fc1000083106129c357662386f26fc1000083816129b9576129b8613c0c565b5b0492506010810190505b6305f5e10083106129ec576305f5e10083816129e2576129e1613c0c565b5b0492506008810190505b6127108310612a11576127108381612a0757612a06613c0c565b5b0492506004810190505b60648310612a345760648381612a2a57612a29613c0c565b5b0492506002810190505b600a8310612a43576001810190505b80915050919050565b6040518060a0016040528060008152602001600073ffffffffffffffffffffffffffffffffffffffff168152602001600073ffffffffffffffffffffffffffffffffffffffff168152602001600081526020016000151581525090565b6000604051905090565b600080fd5b600080fd5b60007fffffffff0000000000000000000000000000000000000000000000000000000082169050919050565b612af281612abd565b8114612afd57600080fd5b50565b600081359050612b0f81612ae9565b92915050565b600060208284031215612b2b57612b2a612ab3565b5b6000612b3984828501612b00565b91505092915050565b60008115159050919050565b612b5781612b42565b82525050565b6000602082019050612b726000830184612b4e565b92915050565b600081519050919050565b600082825260208201905092915050565b60005b83811015612bb2578082015181840152602081019050612b97565b60008484015250505050565b6000601f19601f8301169050919050565b6000612bda82612b78565b612be48185612b83565b9350612bf4818560208601612b94565b612bfd81612bbe565b840191505092915050565b60006020820190508181036000830152612c228184612bcf565b905092915050565b6000819050919050565b612c3d81612c2a565b8114612c4857600080fd5b50565b600081359050612c5a81612c34565b92915050565b600060208284031215612c7657612c75612ab3565b5b6000612c8484828501612c4b565b91505092915050565b600073ffffffffffffffffffffffffffffffffffffffff82169050919050565b6000612cb882612c8d565b9050919050565b612cc881612cad565b82525050565b6000602082019050612ce36000830184612cbf565b92915050565b612cf281612cad565b8114612cfd57600080fd5b50565b600081359050612d0f81612ce9565b92915050565b60008060408385031215612d2c57612d2b612ab3565b5b6000612d3a85828601612d00565b9250506020612d4b85828601612c4b565b9150509250929050565b612d5e81612c2a565b82525050565b6000602082019050612d796000830184612d55565b92915050565b600080600060608486031215612d9857612d97612ab3565b5b6000612da686828701612d00565b9350506020612db786828701612d00565b9250506040612dc886828701612c4b565b9150509250925092565b600060208284031215612de857612de7612ab3565b5b6000612df684828501612d00565b91505092915050565b600080fd5b600080fd5b7f4e487b7100000000000000000000000000000000000000000000000000000000600052604160045260246000fd5b612e4182612bbe565b810181811067ffffffffffffffff82111715612e6057612e5f612e09565b5b80604052505050565b6000612e73612aa9565b9050612e7f8282612e38565b919050565b600067ffffffffffffffff821115612e9f57612e9e612e09565b5b612ea882612bbe565b9050602081019050919050565b82818337600083830152505050565b6000612ed7612ed284612e84565b612e69565b905082815260208101848484011115612ef357612ef2612e04565b5b612efe848285612eb5565b509392505050565b600082601f830112612f1b57612f1a612dff565b5b8135612f2b848260208601612ec4565b91505092915050565b60008060408385031215612f4b57612f4a612ab3565b5b600083013567ffffffffffffffff811115612f6957612f68612ab8565b5b612f7585828601612f06565b9250506020612f8685828601612c4b565b9150509250929050565b600081519050919050565b600082825260208201905092915050565b6000819050602082019050919050565b612fc581612c2a565b82525050565b6000612fd682612c8d565b9050919050565b612fe681612fcb565b82525050565b612ff581612b42565b82525050565b60a0820160008201516130116000850182612fbc565b5060208201516130246020850182612fdd565b5060408201516130376040850182612fdd565b50606082015161304a6060850182612fbc565b50608082015161305d6080850182612fec565b50505050565b600061306f8383612ffb565b60a08301905092915050565b6000602082019050919050565b600061309382612f90565b61309d8185612f9b565b93506130a883612fac565b8060005b838110156130d95781516130c08882613063565b97506130cb8361307b565b9250506001810190506130ac565b5085935050505092915050565b600060208201905081810360008301526131008184613088565b905092915050565b6000806040838503121561311f5761311e612ab3565b5b600061312d85828601612c4b565b925050602061313e85828601612c4b565b9150509250929050565b61315181612b42565b811461315c57600080fd5b50565b60008135905061316e81613148565b92915050565b6000806040838503121561318b5761318a612ab3565b5b600061319985828601612d00565b92505060206131aa8582860161315f565b9150509250929050565b600067ffffffffffffffff8211156131cf576131ce612e09565b5b6131d882612bbe565b9050602081019050919050565b60006131f86131f3846131b4565b612e69565b90508281526020810184848401111561321457613213612e04565b5b61321f848285612eb5565b509392505050565b600082601f83011261323c5761323b612dff565b5b813561324c8482602086016131e5565b91505092915050565b6000806000806080858703121561326f5761326e612ab3565b5b600061327d87828801612d00565b945050602061328e87828801612d00565b935050604061329f87828801612c4b565b925050606085013567ffffffffffffffff8111156132c0576132bf612ab8565b5b6132cc87828801613227565b91505092959194509250565b600080604083850312156132ef576132ee612ab3565b5b60006132fd85828601612d00565b925050602061330e85828601612d00565b9150509250929050565b7f4e487b7100000000000000000000000000000000000000000000000000000000600052602260045260246000fd5b6000600282049050600182168061335f57607f821691505b60208210810361337257613371613318565b5b50919050565b600060608201905061338d6000830186612cbf565b61339a6020830185612d55565b6133a76040830184612cbf565b949350505050565b7f506c65617365207375626d6974207468652061736b696e67207072696365206960008201527f6e206f7264657220746f20636f6d706c65746520746865207075726368617365602082015250565b600061340b604083612b83565b9150613416826133af565b604082019050919050565b6000602082019050818103600083015261343a816133fe565b9050919050565b7f4e487b7100000000000000000000000000000000000000000000000000000000600052601160045260246000fd5b600061347b82612c2a565b915061348683612c2a565b925082820390508181111561349e5761349d613441565b5b92915050565b7f4e487b7100000000000000000000000000000000000000000000000000000000600052603260045260246000fd5b60006134de82612c2a565b91507fffffffffffffffffffffffffffffffffffffffffffffffffffffffffffffffff82036135105761350f613441565b5b600182019050919050565b7f5072696365206d75737420626520657175616c20746f206c697374696e67207060008201527f726963652e000000000000000000000000000000000000000000000000000000602082015250565b6000613577602583612b83565b91506135828261351b565b604082019050919050565b600060208201905081810360008301526135a68161356a565b9050919050565b7f4f6e6c7920746f6b656e206f776e6572732061726520616c6c6f77656420746f60008201527f20726573656c6c2e000000000000000000000000000000000000000000000000602082015250565b6000613609602883612b83565b9150613614826135ad565b604082019050919050565b60006020820190508181036000830152613638816135fc565b9050919050565b7f4f6e6c79206f776e6572206f6620746865206d61726b6574706c61636520636160008201527f6e206368616e676520746865206c697374696e672070726963652e0000000000602082015250565b600061369b603b83612b83565b91506136a68261363f565b604082019050919050565b600060208201905081810360008301526136ca8161368e565b9050919050565b600081905092915050565b60006136e782612b78565b6136f181856136d1565b9350613701818560208601612b94565b80840191505092915050565b600061371982856136dc565b915061372582846136dc565b91508190509392505050565b600061373c82612c2a565b915061374783612c2a565b925082820190508082111561375f5761375e613441565b5b92915050565b60008190508160005260206000209050919050565b60006020601f8301049050919050565b600082821b905092915050565b6000600883026137c77fffffffffffffffffffffffffffffffffffffffffffffffffffffffffffffffff8261378a565b6137d1868361378a565b95508019841693508086168417925050509392505050565b6000819050919050565b600061380e61380961380484612c2a565b6137e9565b612c2a565b9050919050565b6000819050919050565b613828836137f3565b61383c61383482613815565b848454613797565b825550505050565b600090565b613851613844565b61385c81848461381f565b505050565b5b8181101561388057613875600082613849565b600181019050613862565b5050565b601f8211156138c55761389681613765565b61389f8461377a565b810160208510156138ae578190505b6138c26138ba8561377a565b830182613861565b50505b505050565b600082821c905092915050565b60006138e8600019846008026138ca565b1980831691505092915050565b600061390183836138d7565b9150826002028217905092915050565b61391a82612b78565b67ffffffffffffffff81111561393357613932612e09565b5b61393d8254613347565b613948828285613884565b600060209050601f83116001811461397b5760008415613969578287015190505b61397385826138f5565b8655506139db565b601f19841661398986613765565b60005b828110156139b15784890151825560018201915060208501945060208101905061398c565b868310156139ce57848901516139ca601f8916826138d7565b8355505b6001600288020188555050505b505050505050565b7f5072696365206d7573742062652067726561746572207468616e207a65726f00600082015250565b6000613a19601f83612b83565b9150613a24826139e3565b602082019050919050565b60006020820190508181036000830152613a4881613a0c565b9050919050565b6000608082019050613a646000830187612cbf565b613a716020830186612cbf565b613a7e6040830185612d55565b613a8b6060830184612b4e565b95945050505050565b7f436f756e7465723a20756e646572666c6f770000000000000000000000000000600082015250565b6000613aca601283612b83565b9150613ad582613a94565b602082019050919050565b60006020820190508181036000830152613af981613abd565b9050919050565b600081519050919050565b600082825260208201905092915050565b6000613b2782613b00565b613b318185613b0b565b9350613b41818560208601612b94565b613b4a81612bbe565b840191505092915050565b6000608082019050613b6a6000830187612cbf565b613b776020830186612cbf565b613b846040830185612d55565b8181036060830152613b968184613b1c565b905095945050505050565b600081519050613bb081612ae9565b92915050565b600060208284031215613bcc57613bcb612ab3565b5b6000613bda84828501613ba1565b91505092915050565b6000604082019050613bf86000830185612cbf565b613c056020830184612d55565b9392505050565b7f4e487b7100000000000000000000000000000000000000000000000000000000600052601260045260246000fdfea264697066735822122046db9f570e3e10e201edca575b646f065da62c982db56de1076eb18b38be5e2464736f6c634300081b0033",
  "linkReferences": {},
  "deployedLinkReferences": {}
}