{
  "_format": "hh-sol-artifact-1",
  "contractName": "NFTMarketplace",
  "sourceName": "contracts/NFTMarketplace.sol",
  "abi": [
    {
      "inputs": [],
      "stateMutability": "nonpayable",
      "type": "constructor"
    },
    {
      "inputs": [
        {
          "internalType": "address",
          "name": "sender",
          "type": "address"
        },
        {
          "internalType": "uint256",
          "name": "tokenId",
          "type": "uint256"
        },
        {
          "internalType": "address",
          "name": "owner",
          "type": "address"
        }
      ],
      "name": "ERC721IncorrectOwner",
      "type": "error"
    },
    {
      "inputs": [
        {
          "internalType": "address",
          "name": "operator",
          "type": "address"
        },
        {
          "internalType": "uint256",
          "name": "tokenId",
          "type": "uint256"
        }
      ],
      "name": "ERC721InsufficientApproval",
      "type": "error"
    },
    {
      "inputs": [
        {
          "internalType": "address",
          "name": "approver",
          "type": "address"
        }
      ],
      "name": "ERC721InvalidApprover",
      "type": "error"
    },
    {
      "inputs": [
        {
          "internalType": "address",
          "name": "operator",
          "type": "address"
        }
      ],
      "name": "ERC721InvalidOperator",
      "type": "error"
    },
    {
      "inputs": [
        {
          "internalType": "address",
          "name": "owner",
          "type": "address"
        }
      ],
      "name": "ERC721InvalidOwner",
      "type": "error"
    },
    {
      "inputs": [
        {
          "internalType": "address",
          "name": "receiver",
          "type": "address"
        }
      ],
      "name": "ERC721InvalidReceiver",
      "type": "error"
    },
    {
      "inputs": [
        {
          "internalType": "address",
          "name": "sender",
          "type": "address"
        }
      ],
      "name": "ERC721InvalidSender",
      "type": "error"
    },
    {
      "inputs": [
        {
          "internalType": "uint256",
          "name": "tokenId",
          "type": "uint256"
        }
      ],
      "name": "ERC721NonexistentToken",
      "type": "error"
    },
    {
      "anonymous": false,
      "inputs": [
        {
          "indexed": true,
          "internalType": "address",
          "name": "owner",
          "type": "address"
        },
        {
          "indexed": true,
          "internalType": "address",
          "name": "approved",
          "type": "address"
        },
        {
          "indexed": true,
          "internalType": "uint256",
          "name": "tokenId",
          "type": "uint256"
        }
      ],
      "name": "Approval",
      "type": "event"
    },
    {
      "anonymous": false,
      "inputs": [
        {
          "indexed": true,
          "internalType": "address",
          "name": "owner",
          "type": "address"
        },
        {
          "indexed": true,
          "internalType": "address",
          "name": "operator",
          "type": "address"
        },
        {
          "indexed": false,
          "internalType": "bool",
          "name": "approved",
          "type": "bool"
        }
      ],
      "name": "ApprovalForAll",
      "type": "event"
    },
    {
      "anonymous": false,
      "inputs": [
        {
          "indexed": false,
          "internalType": "uint256",
          "name": "_fromTokenId",
          "type": "uint256"
        },
        {
          "indexed": false,
          "internalType": "uint256",
          "name": "_toTokenId",
          "type": "uint256"
        }
      ],
      "name": "BatchMetadataUpdate",
      "type": "event"
    },
    {
      "anonymous": false,
      "inputs": [
        {
          "indexed": true,
          "internalType": "uint256",
          "name": "tokenId",
          "type": "uint256"
        },
        {
          "indexed": false,
          "internalType": "address",
          "name": "seller",
          "type": "address"
        },
        {
          "indexed": false,
          "internalType": "address",
          "name": "owner",
          "type": "address"
        },
        {
          "indexed": false,
          "internalType": "uint256",
          "name": "price",
          "type": "uint256"
        },
        {
          "indexed": false,
          "internalType": "bool",
          "name": "sold",
          "type": "bool"
        }
      ],
      "name": "MarketItemCreated",
      "type": "event"
    },
    {
      "anonymous": false,
      "inputs": [
        {
          "indexed": false,
          "internalType": "uint256",
          "name": "_tokenId",
          "type": "uint256"
        }
      ],
      "name": "MetadataUpdate",
      "type": "event"
    },
    {
      "anonymous": false,
      "inputs": [
        {
          "indexed": true,
          "internalType": "address",
          "name": "from",
          "type": "address"
        },
        {
          "indexed": true,
          "internalType": "address",
          "name": "to",
          "type": "address"
        },
        {
          "indexed": true,
          "internalType": "uint256",
          "name": "tokenId",
          "type": "uint256"
        }
      ],
      "name": "Transfer",
      "type": "event"
    },
    {
      "inputs": [
        {
          "internalType": "address",
          "name": "to",
          "type": "address"
        },
        {
          "internalType": "uint256",
          "name": "tokenId",
          "type": "uint256"
        }
      ],
      "name": "approve",
      "outputs": [],
      "stateMutability": "nonpayable",
      "type": "function"
    },
    {
      "inputs": [
        {
          "internalType": "address",
          "name": "owner",
          "type": "address"
        }
      ],
      "name": "balanceOf",
      "outputs": [
        {
          "internalType": "uint256",
          "name": "",
          "type": "uint256"
        }
      ],
      "stateMutability": "view",
      "type": "function"
    },
    {
      "inputs": [
        {
          "internalType": "uint256",
          "name": "tokenId",
          "type": "uint256"
        }
      ],
      "name": "buyToken",
      "outputs": [],
      "stateMutability": "payable",
      "type": "function"
    },
    {
      "inputs": [
        {
          "internalType": "string",
          "name": "tokenURI",
          "type": "string"
        },
        {
          "internalType": "uint256",
          "name": "price",
          "type": "uint256"
        }
      ],
      "name": "createToken",
      "outputs": [
        {
          "internalType": "uint256",
          "name": "",
          "type": "uint256"
        }
      ],
      "stateMutability": "payable",
      "type": "function"
    },
    {
      "inputs": [],
      "name": "fetchListedNFTsByUser",
      "outputs": [
        {
          "components": [
            {
              "internalType": "uint256",
              "name": "tokenId",
              "type": "uint256"
            },
            {
              "internalType": "address",
              "name": "seller",
              "type": "address"
            },
            {
              "internalType": "address",
              "name": "owner",
              "type": "address"
            },
            {
              "internalType": "uint256",
              "name": "price",
              "type": "uint256"
            },
            {
              "internalType": "bool",
              "name": "sold",
              "type": "bool"
            },
            {
              "internalType": "string",
              "name": "tokenURI",
              "type": "string"
            }
          ],
          "internalType": "struct NFTMarketplace.MarketItemWithURI[]",
          "name": "",
          "type": "tuple[]"
        }
      ],
      "stateMutability": "view",
      "type": "function"
    },
    {
      "inputs": [
        {
          "internalType": "uint256",
          "name": "tokenId",
          "type": "uint256"
        }
      ],
      "name": "fetchNFTByTokenId",
      "outputs": [
        {
          "components": [
            {
              "internalType": "uint256",
              "name": "tokenId",
              "type": "uint256"
            },
            {
              "internalType": "address",
              "name": "seller",
              "type": "address"
            },
            {
              "internalType": "address",
              "name": "owner",
              "type": "address"
            },
            {
              "internalType": "uint256",
              "name": "price",
              "type": "uint256"
            },
            {
              "internalType": "bool",
              "name": "sold",
              "type": "bool"
            },
            {
              "internalType": "string",
              "name": "tokenURI",
              "type": "string"
            }
          ],
          "internalType": "struct NFTMarketplace.MarketItemWithURI",
          "name": "",
          "type": "tuple"
        }
      ],
      "stateMutability": "view",
      "type": "function"
    },
    {
      "inputs": [],
      "name": "fetchPurchasedNFTsByUser",
      "outputs": [
        {
          "components": [
            {
              "internalType": "uint256",
              "name": "tokenId",
              "type": "uint256"
            },
            {
              "internalType": "address",
              "name": "seller",
              "type": "address"
            },
            {
              "internalType": "address",
              "name": "owner",
              "type": "address"
            },
            {
              "internalType": "uint256",
              "name": "price",
              "type": "uint256"
            },
            {
              "internalType": "bool",
              "name": "sold",
              "type": "bool"
            },
            {
              "internalType": "string",
              "name": "tokenURI",
              "type": "string"
            }
          ],
          "internalType": "struct NFTMarketplace.MarketItemWithURI[]",
          "name": "",
          "type": "tuple[]"
        }
      ],
      "stateMutability": "view",
      "type": "function"
    },
    {
      "inputs": [
        {
          "internalType": "uint256",
          "name": "startIndex",
          "type": "uint256"
        },
        {
          "internalType": "uint256",
          "name": "limit",
          "type": "uint256"
        }
      ],
      "name": "fetchUnsoldMarketItem",
      "outputs": [
        {
          "components": [
            {
              "internalType": "uint256",
              "name": "tokenId",
              "type": "uint256"
            },
            {
              "internalType": "address",
              "name": "seller",
              "type": "address"
            },
            {
              "internalType": "address",
              "name": "owner",
              "type": "address"
            },
            {
              "internalType": "uint256",
              "name": "price",
              "type": "uint256"
            },
            {
              "internalType": "bool",
              "name": "sold",
              "type": "bool"
            },
            {
              "internalType": "string",
              "name": "tokenURI",
              "type": "string"
            }
          ],
          "internalType": "struct NFTMarketplace.MarketItemWithURI[]",
          "name": "",
          "type": "tuple[]"
        }
      ],
      "stateMutability": "view",
      "type": "function"
    },
    {
      "inputs": [
        {
          "internalType": "uint256",
          "name": "tokenId",
          "type": "uint256"
        }
      ],
      "name": "getApproved",
      "outputs": [
        {
          "internalType": "address",
          "name": "",
          "type": "address"
        }
      ],
      "stateMutability": "view",
      "type": "function"
    },
    {
      "inputs": [],
      "name": "getListingPrice",
      "outputs": [
        {
          "internalType": "uint256",
          "name": "",
          "type": "uint256"
        }
      ],
      "stateMutability": "view",
      "type": "function"
    },
    {
      "inputs": [
        {
          "internalType": "address",
          "name": "owner",
          "type": "address"
        },
        {
          "internalType": "address",
          "name": "operator",
          "type": "address"
        }
      ],
      "name": "isApprovedForAll",
      "outputs": [
        {
          "internalType": "bool",
          "name": "",
          "type": "bool"
        }
      ],
      "stateMutability": "view",
      "type": "function"
    },
    {
      "inputs": [],
      "name": "name",
      "outputs": [
        {
          "internalType": "string",
          "name": "",
          "type": "string"
        }
      ],
      "stateMutability": "view",
      "type": "function"
    },
    {
      "inputs": [
        {
          "internalType": "uint256",
          "name": "tokenId",
          "type": "uint256"
        }
      ],
      "name": "ownerOf",
      "outputs": [
        {
          "internalType": "address",
          "name": "",
          "type": "address"
        }
      ],
      "stateMutability": "view",
      "type": "function"
    },
    {
      "inputs": [
        {
          "internalType": "uint256",
          "name": "tokenId",
          "type": "uint256"
        },
        {
          "internalType": "uint256",
          "name": "price",
          "type": "uint256"
        }
      ],
      "name": "resellToken",
      "outputs": [],
      "stateMutability": "payable",
      "type": "function"
    },
    {
      "inputs": [
        {
          "internalType": "address",
          "name": "from",
          "type": "address"
        },
        {
          "internalType": "address",
          "name": "to",
          "type": "address"
        },
        {
          "internalType": "uint256",
          "name": "tokenId",
          "type": "uint256"
        }
      ],
      "name": "safeTransferFrom",
      "outputs": [],
      "stateMutability": "nonpayable",
      "type": "function"
    },
    {
      "inputs": [
        {
          "internalType": "address",
          "name": "from",
          "type": "address"
        },
        {
          "internalType": "address",
          "name": "to",
          "type": "address"
        },
        {
          "internalType": "uint256",
          "name": "tokenId",
          "type": "uint256"
        },
        {
          "internalType": "bytes",
          "name": "data",
          "type": "bytes"
        }
      ],
      "name": "safeTransferFrom",
      "outputs": [],
      "stateMutability": "nonpayable",
      "type": "function"
    },
    {
      "inputs": [
        {
          "internalType": "address",
          "name": "operator",
          "type": "address"
        },
        {
          "internalType": "bool",
          "name": "approved",
          "type": "bool"
        }
      ],
      "name": "setApprovalForAll",
      "outputs": [],
      "stateMutability": "nonpayable",
      "type": "function"
    },
    {
      "inputs": [
        {
          "internalType": "bytes4",
          "name": "interfaceId",
          "type": "bytes4"
        }
      ],
      "name": "supportsInterface",
      "outputs": [
        {
          "internalType": "bool",
          "name": "",
          "type": "bool"
        }
      ],
      "stateMutability": "view",
      "type": "function"
    },
    {
      "inputs": [],
      "name": "symbol",
      "outputs": [
        {
          "internalType": "string",
          "name": "",
          "type": "string"
        }
      ],
      "stateMutability": "view",
      "type": "function"
    },
    {
      "inputs": [
        {
          "internalType": "uint256",
          "name": "tokenId",
          "type": "uint256"
        }
      ],
      "name": "tokenURI",
      "outputs": [
        {
          "internalType": "string",
          "name": "",
          "type": "string"
        }
      ],
      "stateMutability": "view",
      "type": "function"
    },
    {
      "inputs": [
        {
          "internalType": "address",
          "name": "from",
          "type": "address"
        },
        {
          "internalType": "address",
          "name": "to",
          "type": "address"
        },
        {
          "internalType": "uint256",
          "name": "tokenId",
          "type": "uint256"
        }
      ],
      "name": "transferFrom",
      "outputs": [],
      "stateMutability": "nonpayable",
      "type": "function"
    },
    {
      "inputs": [
        {
          "internalType": "uint256",
          "name": "_listingPrice",
          "type": "uint256"
        }
      ],
      "name": "updateListingPrice",
      "outputs": [],
      "stateMutability": "nonpayable",
      "type": "function"
    }
  ],
  "bytecode": "0x60806040526608e1bc9bf0400060095534801561001b57600080fd5b506040518060400160405280601581526020017f4e4654204d61726b6574706c61636520546f6b656e00000000000000000000008152506040518060400160405280600581526020017f4d594e465400000000000000000000000000000000000000000000000000000081525081600090816100979190610340565b5080600190816100a79190610340565b50505033600a60006101000a81548173ffffffffffffffffffffffffffffffffffffffff021916908373ffffffffffffffffffffffffffffffffffffffff160217905550610412565b600081519050919050565b7f4e487b7100000000000000000000000000000000000000000000000000000000600052604160045260246000fd5b7f4e487b7100000000000000000000000000000000000000000000000000000000600052602260045260246000fd5b6000600282049050600182168061017157607f821691505b6020821081036101845761018361012a565b5b50919050565b60008190508160005260206000209050919050565b60006020601f8301049050919050565b600082821b905092915050565b6000600883026101ec7fffffffffffffffffffffffffffffffffffffffffffffffffffffffffffffffff826101af565b6101f686836101af565b95508019841693508086168417925050509392505050565b6000819050919050565b6000819050919050565b600061023d6102386102338461020e565b610218565b61020e565b9050919050565b6000819050919050565b61025783610222565b61026b61026382610244565b8484546101bc565b825550505050565b600090565b610280610273565b61028b81848461024e565b505050565b5b818110156102af576102a4600082610278565b600181019050610291565b5050565b601f8211156102f4576102c58161018a565b6102ce8461019f565b810160208510156102dd578190505b6102f16102e98561019f565b830182610290565b50505b505050565b600082821c905092915050565b6000610317600019846008026102f9565b1980831691505092915050565b60006103308383610306565b9150826002028217905092915050565b610349826100f0565b67ffffffffffffffff811115610362576103616100fb565b5b61036c8254610159565b6103778282856102b3565b600060209050601f8311600181146103aa5760008415610398578287015190505b6103a28582610324565b86555061040a565b601f1984166103b88661018a565b60005b828110156103e0578489015182556001820191506020850194506020810190506103bb565b868310156103fd57848901516103f9601f891682610306565b8355505b6001600288020188555050505b505050505050565b614010806104216000396000f3fe6080604052600436106101355760003560e01c806370a08231116100ab578063b88d4fde1161006f578063b88d4fde14610442578063c87b56dd1461046b578063cc7c4e10146104a8578063d1c3b94b146104d3578063e219fc75146104fe578063e985e9c51461051a57610135565b806370a082311461035857806372b3b6201461039557806395d89b41146103c5578063a22cb465146103f0578063ae677aa31461041957610135565b8063226523dd116100fd578063226523dd1461023357806323b872dd146102705780632d296bf11461029957806342842e0e146102b55780634b0daf95146102de5780636352211e1461031b57610135565b806301ffc9a71461013a57806306fdde0314610177578063081812fc146101a2578063095ea7b3146101df57806312e8558514610208575b600080fd5b34801561014657600080fd5b50610161600480360381019061015c9190612d57565b610557565b60405161016e9190612d9f565b60405180910390f35b34801561018357600080fd5b5061018c6105b8565b6040516101999190612e4a565b60405180910390f35b3480156101ae57600080fd5b506101c960048036038101906101c49190612ea2565b61064a565b6040516101d69190612f10565b60405180910390f35b3480156101eb57600080fd5b5061020660048036038101906102019190612f57565b610666565b005b34801561021457600080fd5b5061021d61067c565b60405161022a9190612fa6565b60405180910390f35b34801561023f57600080fd5b5061025a60048036038101906102559190612ea2565b610686565b60405161026791906130c1565b60405180910390f35b34801561027c57600080fd5b50610297600480360381019061029291906130e3565b61077b565b005b6102b360048036038101906102ae9190612ea2565b61087d565b005b3480156102c157600080fd5b506102dc60048036038101906102d791906130e3565b610a88565b005b3480156102ea57600080fd5b5061030560048036038101906103009190613136565b610aa8565b60405161031291906132c1565b60405180910390f35b34801561032757600080fd5b50610342600480360381019061033d9190612ea2565b610d4a565b60405161034f9190612f10565b60405180910390f35b34801561036457600080fd5b5061037f600480360381019061037a91906132e3565b610d5c565b60405161038c9190612fa6565b60405180910390f35b6103af60048036038101906103aa9190613445565b610e16565b6040516103bc9190612fa6565b60405180910390f35b3480156103d157600080fd5b506103da610edf565b6040516103e79190612e4a565b60405180910390f35b3480156103fc57600080fd5b50610417600480360381019061041291906134cd565b610f71565b005b34801561042557600080fd5b50610440600480360381019061043b9190612ea2565b610f87565b005b34801561044e57600080fd5b50610469600480360381019061046491906135ae565b611021565b005b34801561047757600080fd5b50610492600480360381019061048d9190612ea2565b611046565b60405161049f9190612e4a565b60405180910390f35b3480156104b457600080fd5b506104bd611159565b6040516104ca91906132c1565b60405180910390f35b3480156104df57600080fd5b506104e861145c565b6040516104f591906132c1565b60405180910390f35b61051860048036038101906105139190613136565b61175d565b005b34801561052657600080fd5b50610541600480360381019061053c9190613631565b611953565b60405161054e9190612d9f565b60405180910390f35b6000634906490660e01b7bffffffffffffffffffffffffffffffffffffffffffffffffffffffff1916827bffffffffffffffffffffffffffffffffffffffffffffffffffffffff191614806105b157506105b0826119e7565b5b9050919050565b6060600080546105c7906136a0565b80601f01602080910402602001604051908101604052809291908181526020018280546105f3906136a0565b80156106405780601f1061061557610100808354040283529160200191610640565b820191906000526020600020905b81548152906001019060200180831161062357829003601f168201915b5050505050905090565b600061065582611ac9565b5061065f82611b51565b9050919050565b6106788282610673611b8e565b611b96565b5050565b6000600954905090565b61068e612c87565b6000600b6000848152602001908152602001600020905060006040518060c00160405280836000015481526020018360010160009054906101000a900473ffffffffffffffffffffffffffffffffffffffff1673ffffffffffffffffffffffffffffffffffffffff1681526020018360020160009054906101000a900473ffffffffffffffffffffffffffffffffffffffff1673ffffffffffffffffffffffffffffffffffffffff168152602001836003015481526020018360040160009054906101000a900460ff161515815260200161076c8460000154611046565b81525090508092505050919050565b600073ffffffffffffffffffffffffffffffffffffffff168273ffffffffffffffffffffffffffffffffffffffff16036107ed5760006040517f64a0ae920000000000000000000000000000000000000000000000000000000081526004016107e49190612f10565b60405180910390fd5b600061080183836107fc611b8e565b611ba8565b90508373ffffffffffffffffffffffffffffffffffffffff168173ffffffffffffffffffffffffffffffffffffffff1614610877578382826040517f64283d7b00000000000000000000000000000000000000000000000000000000815260040161086e939291906136d1565b60405180910390fd5b50505050565b6000600b60008381526020019081526020016000209050806003015434146108da576040517f08c379a00000000000000000000000000000000000000000000000000000000081526004016108d190613754565b60405180910390fd5b8060040160009054906101000a900460ff161561092c576040517f08c379a0000000000000000000000000000000000000000000000000000000008152600401610923906137c0565b60405180910390fd5b338160020160006101000a81548173ffffffffffffffffffffffffffffffffffffffff021916908373ffffffffffffffffffffffffffffffffffffffff16021790555060018160040160006101000a81548160ff0219169083151502179055506109966008611dc2565b6109a1303384611de1565b600a60009054906101000a900473ffffffffffffffffffffffffffffffffffffffff1673ffffffffffffffffffffffffffffffffffffffff166108fc6009549081150290604051600060405180830381858888f19350505050158015610a0b573d6000803e3d6000fd5b508060010160009054906101000a900473ffffffffffffffffffffffffffffffffffffffff1673ffffffffffffffffffffffffffffffffffffffff166108fc60095434610a58919061380f565b9081150290604051600060405180830381858888f19350505050158015610a83573d6000803e3d6000fd5b505050565b610aa383838360405180602001604052806000815250611021565b505050565b60606000610ab66007611f4e565b90506000610ac46008611f4e565b82610acf919061380f565b90506000818587610ae09190613843565b11610aeb5784610af8565b8582610af7919061380f565b5b945060008567ffffffffffffffff811115610b1657610b1561331a565b5b604051908082528060200260200182016040528015610b4f57816020015b610b3c612c87565b815260200190600190039081610b345790505b509050600080600190505b858111158015610b6957508784105b15610d3b57600b600082815260200190815260200160002060040160009054906101000a900460ff16158015610c0057503073ffffffffffffffffffffffffffffffffffffffff16600b600083815260200190815260200160002060020160009054906101000a900473ffffffffffffffffffffffffffffffffffffffff1673ffffffffffffffffffffffffffffffffffffffff16145b15610d2857888210610d19576000600b600083815260200190815260200160002090506040518060c00160405280826000015481526020018260010160009054906101000a900473ffffffffffffffffffffffffffffffffffffffff1673ffffffffffffffffffffffffffffffffffffffff1681526020018260020160009054906101000a900473ffffffffffffffffffffffffffffffffffffffff1673ffffffffffffffffffffffffffffffffffffffff168152602001826003015481526020018260040160009054906101000a900460ff1615158152602001610ce88360000154611046565b815250848681518110610cfe57610cfd613877565b5b60200260200101819052508480610d14906138a6565b955050505b8180610d24906138a6565b9250505b8080610d33906138a6565b915050610b5a565b50819550505050505092915050565b6000610d5582611ac9565b9050919050565b60008073ffffffffffffffffffffffffffffffffffffffff168273ffffffffffffffffffffffffffffffffffffffff1603610dcf5760006040517f89c62b64000000000000000000000000000000000000000000000000000000008152600401610dc69190612f10565b60405180910390fd5b600360008373ffffffffffffffffffffffffffffffffffffffff1673ffffffffffffffffffffffffffffffffffffffff168152602001908152602001600020549050919050565b60006009543414610e5c576040517f08c379a0000000000000000000000000000000000000000000000000000000008152600401610e5390613960565b60405180910390fd5b60008211610e9f576040517f08c379a0000000000000000000000000000000000000000000000000000000008152600401610e96906139cc565b60405180910390fd5b610ea96007611dc2565b6000610eb56007611f4e565b9050610ec13382611f5c565b610ecb8185611f7a565b610ed58184611fd6565b8091505092915050565b606060018054610eee906136a0565b80601f0160208091040260200160405190810160405280929190818152602001828054610f1a906136a0565b8015610f675780601f10610f3c57610100808354040283529160200191610f67565b820191906000526020600020905b815481529060010190602001808311610f4a57829003601f168201915b5050505050905090565b610f83610f7c611b8e565b8383612152565b5050565b600a60009054906101000a900473ffffffffffffffffffffffffffffffffffffffff1673ffffffffffffffffffffffffffffffffffffffff163373ffffffffffffffffffffffffffffffffffffffff1614611017576040517f08c379a000000000000000000000000000000000000000000000000000000000815260040161100e90613a5e565b60405180910390fd5b8060098190555050565b61102c84848461077b565b611040611037611b8e565b858585856122c1565b50505050565b606061105182611ac9565b506000600660008481526020019081526020016000208054611072906136a0565b80601f016020809104026020016040519081016040528092919081815260200182805461109e906136a0565b80156110eb5780601f106110c0576101008083540402835291602001916110eb565b820191906000526020600020905b8154815290600101906020018083116110ce57829003601f168201915b5050505050905060006110fc612472565b90506000815103611111578192505050611154565b60008251111561114657808260405160200161112e929190613aba565b60405160208183030381529060405292505050611154565b61114f84612489565b925050505b919050565b606060006111676007611f4e565b90506000806000600190505b83811161123357600b600082815260200190815260200160002060040160009054906101000a900460ff1615801561120c57503373ffffffffffffffffffffffffffffffffffffffff16600b600083815260200190815260200160002060010160009054906101000a900473ffffffffffffffffffffffffffffffffffffffff1673ffffffffffffffffffffffffffffffffffffffff16145b1561122057828061121c906138a6565b9350505b808061122b906138a6565b915050611173565b5060008267ffffffffffffffff8111156112505761124f61331a565b5b60405190808252806020026020018201604052801561128957816020015b611276612c87565b81526020019060019003908161126e5790505b5090506000600190505b84811161145157600b600082815260200190815260200160002060040160009054906101000a900460ff1615801561132c57503373ffffffffffffffffffffffffffffffffffffffff16600b600083815260200190815260200160002060010160009054906101000a900473ffffffffffffffffffffffffffffffffffffffff1673ffffffffffffffffffffffffffffffffffffffff16145b1561143e576000600b600083815260200190815260200160002090506040518060c00160405280826000015481526020018260010160009054906101000a900473ffffffffffffffffffffffffffffffffffffffff1673ffffffffffffffffffffffffffffffffffffffff1681526020018260020160009054906101000a900473ffffffffffffffffffffffffffffffffffffffff1673ffffffffffffffffffffffffffffffffffffffff168152602001826003015481526020018260040160009054906101000a900460ff161515815260200161140d8360000154611046565b81525083858151811061142357611422613877565b5b60200260200101819052508380611439906138a6565b945050505b8080611449906138a6565b915050611293565b508094505050505090565b6060600061146a6007611f4e565b90506000806000600190505b83811161153557600b600082815260200190815260200160002060040160009054906101000a900460ff16801561150e57503373ffffffffffffffffffffffffffffffffffffffff16600b600083815260200190815260200160002060020160009054906101000a900473ffffffffffffffffffffffffffffffffffffffff1673ffffffffffffffffffffffffffffffffffffffff16145b1561152257828061151e906138a6565b9350505b808061152d906138a6565b915050611476565b5060008267ffffffffffffffff8111156115525761155161331a565b5b60405190808252806020026020018201604052801561158b57816020015b611578612c87565b8152602001906001900390816115705790505b5090506000600190505b84811161175257600b600082815260200190815260200160002060040160009054906101000a900460ff16801561162d57503373ffffffffffffffffffffffffffffffffffffffff16600b600083815260200190815260200160002060020160009054906101000a900473ffffffffffffffffffffffffffffffffffffffff1673ffffffffffffffffffffffffffffffffffffffff16145b1561173f576000600b600083815260200190815260200160002090506040518060c00160405280826000015481526020018260010160009054906101000a900473ffffffffffffffffffffffffffffffffffffffff1673ffffffffffffffffffffffffffffffffffffffff1681526020018260020160009054906101000a900473ffffffffffffffffffffffffffffffffffffffff1673ffffffffffffffffffffffffffffffffffffffff168152602001826003015481526020018260040160009054906101000a900460ff161515815260200161170e8360000154611046565b81525083858151811061172457611723613877565b5b6020026020010181905250838061173a906138a6565b945050505b808061174a906138a6565b915050611595565b508094505050505090565b60095434146117a1576040517f08c379a000000000000000000000000000000000000000000000000000000000815260040161179890613960565b60405180910390fd5b6000600b600084815260200190815260200160002090503373ffffffffffffffffffffffffffffffffffffffff168160020160009054906101000a900473ffffffffffffffffffffffffffffffffffffffff1673ffffffffffffffffffffffffffffffffffffffff161461184a576040517f08c379a000000000000000000000000000000000000000000000000000000000815260040161184190613b50565b60405180910390fd5b6000821161188d576040517f08c379a0000000000000000000000000000000000000000000000000000000008152600401611884906139cc565b60405180910390fd5b60008160040160006101000a81548160ff021916908315150217905550818160030181905550338160010160006101000a81548173ffffffffffffffffffffffffffffffffffffffff021916908373ffffffffffffffffffffffffffffffffffffffff160217905550308160020160006101000a81548173ffffffffffffffffffffffffffffffffffffffff021916908373ffffffffffffffffffffffffffffffffffffffff16021790555061194360086124f2565b61194e333085611de1565b505050565b6000600560008473ffffffffffffffffffffffffffffffffffffffff1673ffffffffffffffffffffffffffffffffffffffff16815260200190815260200160002060008373ffffffffffffffffffffffffffffffffffffffff1673ffffffffffffffffffffffffffffffffffffffff16815260200190815260200160002060009054906101000a900460ff16905092915050565b60007f80ac58cd000000000000000000000000000000000000000000000000000000007bffffffffffffffffffffffffffffffffffffffffffffffffffffffff1916827bffffffffffffffffffffffffffffffffffffffffffffffffffffffff19161480611ab257507f5b5e139f000000000000000000000000000000000000000000000000000000007bffffffffffffffffffffffffffffffffffffffffffffffffffffffff1916827bffffffffffffffffffffffffffffffffffffffffffffffffffffffff1916145b80611ac25750611ac182612558565b5b9050919050565b600080611ad5836125c2565b9050600073ffffffffffffffffffffffffffffffffffffffff168173ffffffffffffffffffffffffffffffffffffffff1603611b4857826040517f7e273289000000000000000000000000000000000000000000000000000000008152600401611b3f9190612fa6565b60405180910390fd5b80915050919050565b60006004600083815260200190815260200160002060009054906101000a900473ffffffffffffffffffffffffffffffffffffffff169050919050565b600033905090565b611ba383838360016125ff565b505050565b600080611bb4846125c2565b9050600073ffffffffffffffffffffffffffffffffffffffff168373ffffffffffffffffffffffffffffffffffffffff1614611bf657611bf58184866127c4565b5b600073ffffffffffffffffffffffffffffffffffffffff168173ffffffffffffffffffffffffffffffffffffffff1614611c8757611c386000856000806125ff565b6001600360008373ffffffffffffffffffffffffffffffffffffffff1673ffffffffffffffffffffffffffffffffffffffff168152602001908152602001600020600082825403925050819055505b600073ffffffffffffffffffffffffffffffffffffffff168573ffffffffffffffffffffffffffffffffffffffff1614611d0a576001600360008773ffffffffffffffffffffffffffffffffffffffff1673ffffffffffffffffffffffffffffffffffffffff168152602001908152602001600020600082825401925050819055505b846002600086815260200190815260200160002060006101000a81548173ffffffffffffffffffffffffffffffffffffffff021916908373ffffffffffffffffffffffffffffffffffffffff160217905550838573ffffffffffffffffffffffffffffffffffffffff168273ffffffffffffffffffffffffffffffffffffffff167fddf252ad1be2c89b69c2b068fc378daa952ba7f163c4a11628f55a4df523b3ef60405160405180910390a4809150509392505050565b6001816000016000828254611dd79190613843565b9250508190555050565b600073ffffffffffffffffffffffffffffffffffffffff168273ffffffffffffffffffffffffffffffffffffffff1603611e535760006040517f64a0ae92000000000000000000000000000000000000000000000000000000008152600401611e4a9190612f10565b60405180910390fd5b6000611e6183836000611ba8565b9050600073ffffffffffffffffffffffffffffffffffffffff168173ffffffffffffffffffffffffffffffffffffffff1603611ed457816040517f7e273289000000000000000000000000000000000000000000000000000000008152600401611ecb9190612fa6565b60405180910390fd5b8373ffffffffffffffffffffffffffffffffffffffff168173ffffffffffffffffffffffffffffffffffffffff1614611f48578382826040517f64283d7b000000000000000000000000000000000000000000000000000000008152600401611f3f939291906136d1565b60405180910390fd5b50505050565b600081600001549050919050565b611f76828260405180602001604052806000815250612888565b5050565b80600660008481526020019081526020016000209081611f9a9190613d1c565b507ff8e1a15aba9398e019f0b49df1a4fde98ee17ae345cb5f6b5e2c27f5033e8ce782604051611fca9190612fa6565b60405180910390a15050565b6040518060a001604052808381526020013373ffffffffffffffffffffffffffffffffffffffff1681526020013073ffffffffffffffffffffffffffffffffffffffff16815260200182815260200160001515815250600b60008481526020019081526020016000206000820151816000015560208201518160010160006101000a81548173ffffffffffffffffffffffffffffffffffffffff021916908373ffffffffffffffffffffffffffffffffffffffff16021790555060408201518160020160006101000a81548173ffffffffffffffffffffffffffffffffffffffff021916908373ffffffffffffffffffffffffffffffffffffffff1602179055506060820151816003015560808201518160040160006101000a81548160ff02191690831515021790555090505061210f333084611de1565b817fb640004f1d14576d0c209e240cad0410e0d8c0c33a09375861fbadae2588a98d33308460006040516121469493929190613dee565b60405180910390a25050565b600073ffffffffffffffffffffffffffffffffffffffff168273ffffffffffffffffffffffffffffffffffffffff16036121c357816040517f5b08ba180000000000000000000000000000000000000000000000000000000081526004016121ba9190612f10565b60405180910390fd5b80600560008573ffffffffffffffffffffffffffffffffffffffff1673ffffffffffffffffffffffffffffffffffffffff16815260200190815260200160002060008473ffffffffffffffffffffffffffffffffffffffff1673ffffffffffffffffffffffffffffffffffffffff16815260200190815260200160002060006101000a81548160ff0219169083151502179055508173ffffffffffffffffffffffffffffffffffffffff168373ffffffffffffffffffffffffffffffffffffffff167f17307eab39ab6107e8899845ad3d59bd9653f200f220920489ca2b5937696c31836040516122b49190612d9f565b60405180910390a3505050565b60008373ffffffffffffffffffffffffffffffffffffffff163b111561246b578273ffffffffffffffffffffffffffffffffffffffff1663150b7a02868685856040518563ffffffff1660e01b81526004016123209493929190613e88565b6020604051808303816000875af192505050801561235c57506040513d601f19601f820116820180604052508101906123599190613ee9565b60015b6123e0573d806000811461238c576040519150601f19603f3d011682016040523d82523d6000602084013e612391565b606091505b5060008151036123d857836040517f64a0ae920000000000000000000000000000000000000000000000000000000081526004016123cf9190612f10565b60405180910390fd5b805181602001fd5b63150b7a0260e01b7bffffffffffffffffffffffffffffffffffffffffffffffffffffffff1916817bffffffffffffffffffffffffffffffffffffffffffffffffffffffff19161461246957836040517f64a0ae920000000000000000000000000000000000000000000000000000000081526004016124609190612f10565b60405180910390fd5b505b5050505050565b606060405180602001604052806000815250905090565b606061249482611ac9565b50600061249f612472565b905060008151116124bf57604051806020016040528060008152506124ea565b806124c9846128ac565b6040516020016124da929190613aba565b6040516020818303038152906040525b915050919050565b6000816000015411612539576040517f08c379a000000000000000000000000000000000000000000000000000000000815260040161253090613f62565b60405180910390fd5b600181600001600082825461254e919061380f565b9250508190555050565b60007f01ffc9a7000000000000000000000000000000000000000000000000000000007bffffffffffffffffffffffffffffffffffffffffffffffffffffffff1916827bffffffffffffffffffffffffffffffffffffffffffffffffffffffff1916149050919050565b60006002600083815260200190815260200160002060009054906101000a900473ffffffffffffffffffffffffffffffffffffffff169050919050565b80806126385750600073ffffffffffffffffffffffffffffffffffffffff168273ffffffffffffffffffffffffffffffffffffffff1614155b1561276c57600061264884611ac9565b9050600073ffffffffffffffffffffffffffffffffffffffff168373ffffffffffffffffffffffffffffffffffffffff16141580156126b357508273ffffffffffffffffffffffffffffffffffffffff168173ffffffffffffffffffffffffffffffffffffffff1614155b80156126c657506126c48184611953565b155b1561270857826040517fa9fbf51f0000000000000000000000000000000000000000000000000000000081526004016126ff9190612f10565b60405180910390fd5b811561276a57838573ffffffffffffffffffffffffffffffffffffffff168273ffffffffffffffffffffffffffffffffffffffff167f8c5be1e5ebec7d5bd14f71427d1e84f3dd0314c0f7b2291e5b200ac8c7c3b92560405160405180910390a45b505b836004600085815260200190815260200160002060006101000a81548173ffffffffffffffffffffffffffffffffffffffff021916908373ffffffffffffffffffffffffffffffffffffffff16021790555050505050565b6127cf83838361297a565b61288357600073ffffffffffffffffffffffffffffffffffffffff168373ffffffffffffffffffffffffffffffffffffffff160361284457806040517f7e27328900000000000000000000000000000000000000000000000000000000815260040161283b9190612fa6565b60405180910390fd5b81816040517f177e802f00000000000000000000000000000000000000000000000000000000815260040161287a929190613f82565b60405180910390fd5b505050565b6128928383612a3b565b6128a761289d611b8e565b60008585856122c1565b505050565b6060600060016128bb84612b34565b01905060008167ffffffffffffffff8111156128da576128d961331a565b5b6040519080825280601f01601f19166020018201604052801561290c5781602001600182028036833780820191505090505b509050600082602001820190505b60011561296f578080600190039150507f3031323334353637383961626364656600000000000000000000000000000000600a86061a8153600a858161296357612962613fab565b5b0494506000850361291a575b819350505050919050565b60008073ffffffffffffffffffffffffffffffffffffffff168373ffffffffffffffffffffffffffffffffffffffff1614158015612a3257508273ffffffffffffffffffffffffffffffffffffffff168473ffffffffffffffffffffffffffffffffffffffff1614806129f357506129f28484611953565b5b80612a3157508273ffffffffffffffffffffffffffffffffffffffff16612a1983611b51565b73ffffffffffffffffffffffffffffffffffffffff16145b5b90509392505050565b600073ffffffffffffffffffffffffffffffffffffffff168273ffffffffffffffffffffffffffffffffffffffff1603612aad5760006040517f64a0ae92000000000000000000000000000000000000000000000000000000008152600401612aa49190612f10565b60405180910390fd5b6000612abb83836000611ba8565b9050600073ffffffffffffffffffffffffffffffffffffffff168173ffffffffffffffffffffffffffffffffffffffff1614612b2f5760006040517f73c6ac6e000000000000000000000000000000000000000000000000000000008152600401612b269190612f10565b60405180910390fd5b505050565b600080600090507a184f03e93ff9f4daa797ed6e38ed64bf6a1f0100000000000000008310612b92577a184f03e93ff9f4daa797ed6e38ed64bf6a1f0100000000000000008381612b8857612b87613fab565b5b0492506040810190505b6d04ee2d6d415b85acef81000000008310612bcf576d04ee2d6d415b85acef81000000008381612bc557612bc4613fab565b5b0492506020810190505b662386f26fc100008310612bfe57662386f26fc100008381612bf457612bf3613fab565b5b0492506010810190505b6305f5e1008310612c27576305f5e1008381612c1d57612c1c613fab565b5b0492506008810190505b6127108310612c4c576127108381612c4257612c41613fab565b5b0492506004810190505b60648310612c6f5760648381612c6557612c64613fab565b5b0492506002810190505b600a8310612c7e576001810190505b80915050919050565b6040518060c0016040528060008152602001600073ffffffffffffffffffffffffffffffffffffffff168152602001600073ffffffffffffffffffffffffffffffffffffffff16815260200160008152602001600015158152602001606081525090565b6000604051905090565b600080fd5b600080fd5b60007fffffffff0000000000000000000000000000000000000000000000000000000082169050919050565b612d3481612cff565b8114612d3f57600080fd5b50565b600081359050612d5181612d2b565b92915050565b600060208284031215612d6d57612d6c612cf5565b5b6000612d7b84828501612d42565b91505092915050565b60008115159050919050565b612d9981612d84565b82525050565b6000602082019050612db46000830184612d90565b92915050565b600081519050919050565b600082825260208201905092915050565b60005b83811015612df4578082015181840152602081019050612dd9565b60008484015250505050565b6000601f19601f8301169050919050565b6000612e1c82612dba565b612e268185612dc5565b9350612e36818560208601612dd6565b612e3f81612e00565b840191505092915050565b60006020820190508181036000830152612e648184612e11565b905092915050565b6000819050919050565b612e7f81612e6c565b8114612e8a57600080fd5b50565b600081359050612e9c81612e76565b92915050565b600060208284031215612eb857612eb7612cf5565b5b6000612ec684828501612e8d565b91505092915050565b600073ffffffffffffffffffffffffffffffffffffffff82169050919050565b6000612efa82612ecf565b9050919050565b612f0a81612eef565b82525050565b6000602082019050612f256000830184612f01565b92915050565b612f3481612eef565b8114612f3f57600080fd5b50565b600081359050612f5181612f2b565b92915050565b60008060408385031215612f6e57612f6d612cf5565b5b6000612f7c85828601612f42565b9250506020612f8d85828601612e8d565b9150509250929050565b612fa081612e6c565b82525050565b6000602082019050612fbb6000830184612f97565b92915050565b612fca81612e6c565b82525050565b612fd981612eef565b82525050565b612fe881612d84565b82525050565b600082825260208201905092915050565b600061300a82612dba565b6130148185612fee565b9350613024818560208601612dd6565b61302d81612e00565b840191505092915050565b600060c0830160008301516130506000860182612fc1565b5060208301516130636020860182612fd0565b5060408301516130766040860182612fd0565b5060608301516130896060860182612fc1565b50608083015161309c6080860182612fdf565b5060a083015184820360a08601526130b48282612fff565b9150508091505092915050565b600060208201905081810360008301526130db8184613038565b905092915050565b6000806000606084860312156130fc576130fb612cf5565b5b600061310a86828701612f42565b935050602061311b86828701612f42565b925050604061312c86828701612e8d565b9150509250925092565b6000806040838503121561314d5761314c612cf5565b5b600061315b85828601612e8d565b925050602061316c85828601612e8d565b9150509250929050565b600081519050919050565b600082825260208201905092915050565b6000819050602082019050919050565b600060c0830160008301516131ba6000860182612fc1565b5060208301516131cd6020860182612fd0565b5060408301516131e06040860182612fd0565b5060608301516131f36060860182612fc1565b5060808301516132066080860182612fdf565b5060a083015184820360a086015261321e8282612fff565b9150508091505092915050565b600061323783836131a2565b905092915050565b6000602082019050919050565b600061325782613176565b6132618185613181565b93508360208202850161327385613192565b8060005b858110156132af5784840389528151613290858261322b565b945061329b8361323f565b925060208a01995050600181019050613277565b50829750879550505050505092915050565b600060208201905081810360008301526132db818461324c565b905092915050565b6000602082840312156132f9576132f8612cf5565b5b600061330784828501612f42565b91505092915050565b600080fd5b600080fd5b7f4e487b7100000000000000000000000000000000000000000000000000000000600052604160045260246000fd5b61335282612e00565b810181811067ffffffffffffffff821117156133715761337061331a565b5b80604052505050565b6000613384612ceb565b90506133908282613349565b919050565b600067ffffffffffffffff8211156133b0576133af61331a565b5b6133b982612e00565b9050602081019050919050565b82818337600083830152505050565b60006133e86133e384613395565b61337a565b90508281526020810184848401111561340457613403613315565b5b61340f8482856133c6565b509392505050565b600082601f83011261342c5761342b613310565b5b813561343c8482602086016133d5565b91505092915050565b6000806040838503121561345c5761345b612cf5565b5b600083013567ffffffffffffffff81111561347a57613479612cfa565b5b61348685828601613417565b925050602061349785828601612e8d565b9150509250929050565b6134aa81612d84565b81146134b557600080fd5b50565b6000813590506134c7816134a1565b92915050565b600080604083850312156134e4576134e3612cf5565b5b60006134f285828601612f42565b9250506020613503858286016134b8565b9150509250929050565b600067ffffffffffffffff8211156135285761352761331a565b5b61353182612e00565b9050602081019050919050565b600061355161354c8461350d565b61337a565b90508281526020810184848401111561356d5761356c613315565b5b6135788482856133c6565b509392505050565b600082601f83011261359557613594613310565b5b81356135a584826020860161353e565b91505092915050565b600080600080608085870312156135c8576135c7612cf5565b5b60006135d687828801612f42565b94505060206135e787828801612f42565b93505060406135f887828801612e8d565b925050606085013567ffffffffffffffff81111561361957613618612cfa565b5b61362587828801613580565b91505092959194509250565b6000806040838503121561364857613647612cf5565b5b600061365685828601612f42565b925050602061366785828601612f42565b9150509250929050565b7f4e487b7100000000000000000000000000000000000000000000000000000000600052602260045260246000fd5b600060028204905060018216806136b857607f821691505b6020821081036136cb576136ca613671565b5b50919050565b60006060820190506136e66000830186612f01565b6136f36020830185612f97565b6137006040830184612f01565b949350505050565b7f496e636f7272656374207061796d656e7420616d6f756e740000000000000000600082015250565b600061373e601883612dc5565b915061374982613708565b602082019050919050565b6000602082019050818103600083015261376d81613731565b9050919050565b7f546f6b656e20616c726561647920736f6c640000000000000000000000000000600082015250565b60006137aa601283612dc5565b91506137b582613774565b602082019050919050565b600060208201905081810360008301526137d98161379d565b9050919050565b7f4e487b7100000000000000000000000000000000000000000000000000000000600052601160045260246000fd5b600061381a82612e6c565b915061382583612e6c565b925082820390508181111561383d5761383c6137e0565b5b92915050565b600061384e82612e6c565b915061385983612e6c565b9250828201905080821115613871576138706137e0565b5b92915050565b7f4e487b7100000000000000000000000000000000000000000000000000000000600052603260045260246000fd5b60006138b182612e6c565b91507fffffffffffffffffffffffffffffffffffffffffffffffffffffffffffffffff82036138e3576138e26137e0565b5b600182019050919050565b7f5072696365206d75737420626520657175616c20746f20746865206c6973746960008201527f6e67207072696365000000000000000000000000000000000000000000000000602082015250565b600061394a602883612dc5565b9150613955826138ee565b604082019050919050565b600060208201905081810360008301526139798161393d565b9050919050565b7f5072696365206d7573742062652067726561746572207468616e207a65726f00600082015250565b60006139b6601f83612dc5565b91506139c182613980565b602082019050919050565b600060208201905081810360008301526139e5816139a9565b9050919050565b7f4f6e6c79206d61726b6574706c616365206f776e65722063616e2063616c6c2060008201527f746869732066756e6374696f6e00000000000000000000000000000000000000602082015250565b6000613a48602d83612dc5565b9150613a53826139ec565b604082019050919050565b60006020820190508181036000830152613a7781613a3b565b9050919050565b600081905092915050565b6000613a9482612dba565b613a9e8185613a7e565b9350613aae818560208601612dd6565b80840191505092915050565b6000613ac68285613a89565b9150613ad28284613a89565b91508190509392505050565b7f4f6e6c7920746865206f776e6572206f662074686520746f6b656e2063616e2060008201527f726573656c6c0000000000000000000000000000000000000000000000000000602082015250565b6000613b3a602683612dc5565b9150613b4582613ade565b604082019050919050565b60006020820190508181036000830152613b6981613b2d565b9050919050565b60008190508160005260206000209050919050565b60006020601f8301049050919050565b600082821b905092915050565b600060088302613bd27fffffffffffffffffffffffffffffffffffffffffffffffffffffffffffffffff82613b95565b613bdc8683613b95565b95508019841693508086168417925050509392505050565b6000819050919050565b6000613c19613c14613c0f84612e6c565b613bf4565b612e6c565b9050919050565b6000819050919050565b613c3383613bfe565b613c47613c3f82613c20565b848454613ba2565b825550505050565b600090565b613c5c613c4f565b613c67818484613c2a565b505050565b5b81811015613c8b57613c80600082613c54565b600181019050613c6d565b5050565b601f821115613cd057613ca181613b70565b613caa84613b85565b81016020851015613cb9578190505b613ccd613cc585613b85565b830182613c6c565b50505b505050565b600082821c905092915050565b6000613cf360001984600802613cd5565b1980831691505092915050565b6000613d0c8383613ce2565b9150826002028217905092915050565b613d2582612dba565b67ffffffffffffffff811115613d3e57613d3d61331a565b5b613d4882546136a0565b613d53828285613c8f565b600060209050601f831160018114613d865760008415613d74578287015190505b613d7e8582613d00565b865550613de6565b601f198416613d9486613b70565b60005b82811015613dbc57848901518255600182019150602085019450602081019050613d97565b86831015613dd95784890151613dd5601f891682613ce2565b8355505b6001600288020188555050505b505050505050565b6000608082019050613e036000830187612f01565b613e106020830186612f01565b613e1d6040830185612f97565b613e2a6060830184612d90565b95945050505050565b600081519050919050565b600082825260208201905092915050565b6000613e5a82613e33565b613e648185613e3e565b9350613e74818560208601612dd6565b613e7d81612e00565b840191505092915050565b6000608082019050613e9d6000830187612f01565b613eaa6020830186612f01565b613eb76040830185612f97565b8181036060830152613ec98184613e4f565b905095945050505050565b600081519050613ee381612d2b565b92915050565b600060208284031215613eff57613efe612cf5565b5b6000613f0d84828501613ed4565b91505092915050565b7f436f756e7465723a20756e646572666c6f770000000000000000000000000000600082015250565b6000613f4c601283612dc5565b9150613f5782613f16565b602082019050919050565b60006020820190508181036000830152613f7b81613f3f565b9050919050565b6000604082019050613f976000830185612f01565b613fa46020830184612f97565b9392505050565b7f4e487b7100000000000000000000000000000000000000000000000000000000600052601260045260246000fdfea2646970667358221220f62cb3c9a0628c7e14b8a464b191d184f8b436f8a3b7e17cb7edc98d30c1f49b64736f6c634300081b0033",
  "linkReferences": {},
  "deployedLinkReferences": {}
}